:020000040800F2
:100000009824002091010008830300087F03000862
:1000100081030008D9020008CD0600080000000096
:10002000000000000000000000000000790400084B
:10003000DB02000800000000990300083D050008ED
:10004000AB010008AB010008AB010008AB010008E0
:10005000AB010008AB010008AB010008AB010008D0
:10006000AB010008AB010008AB010008AB010008C0
:10007000AB010008AB010008AB010008AB010008B0
:10008000AB010008AB010008AB010008AB010008A0
:10009000AB010008AB010008AB010008AB01000890
:1000A000AB010008AB010008AB010008AB01000880
:1000B000AB010008AB010008AB010008AB01000870
:1000C000AB010008AB010008AB010008AB01000860
:1000D000AB010008AB010008AB010008AB01000850
:1000E000AB010008AB010008AB01000800F002F80A
:1000F00000F03AF80AA090E8000C82448344AAF188
:100100000107DA4501D100F02FF8AFF2090EBAE885
:100110000F0013F0010F18BFFB1A43F0010318473B
:100120003007000050070000103A24BF78C878C19B
:10013000FAD8520724BF30C830C144BF04680C60ED
:10014000704700000023002400250026103A28BF35
:1001500078C1FBD8520728BF30C148BF0B60704739
:100160001FB51FBD10B510BD00F072F81146FFF7A6
:10017000F7FF00F0EDFA00F0A4F803B4FFF7F2FF88
:1001800003BC00F0A4FA000080F308887047000068
:100190000948804709480047FEE7FEE7FEE7FEE71B
:1001A000FEE7FEE7FEE7FEE7FEE7FEE70448054957
:1001B000054A064B7047000041050008ED000008A5
:1001C00098000020982400209820002098200020EB
:1001D000704700000FB4044910B503AA029800F05C
:1001E00009F810BC5DF814FB1C0000207047704734
:1001F00070477047074B70B50D467B4400F011F80F
:100200000446284600F020F810B14FF0FF3070BDD2
:10021000204670BD0F05000001694A1C0261087884
:10022000704700B58FB0CDE9013100210591054936
:100230007944CDE903101146684600F02EF80FB05E
:1002400000BD0000E5FFFFFF007B00F0800070476D
:10025000754600F03DF8AE4605006946534620F06D
:100260000700854618B020B5FFF7A0FFBDE8204085
:100270004FF000064FF000074FF000084FF0000B62
:1002800021F00701AC46ACE8C009ACE8C009ACE815
:10029000C009ACE8C0098D4670472DE9F04106461B
:1002A0000024D6E90170F5688046304603E04146F7
:1002B000B847641C3046A8470028F8D12046BDE85E
:1002C000F0810446AFF300802046FFF756FF0000A0
:1002D0000048704734000020FEE77047F0B5CA7848
:1002E000002502F00F03D20601D58A7813430A785D
:1002F0004FF00F0E12F0FF0F4FF001021CD00468F8
:100300000F8802FA05F63740B74211D14FEA850C43
:100310000EFA0CF724EA070703FA0CF43C43CF78F3
:10032000282F02D0482F02D002E0466100E006618B
:100330006D1C082DE4D304600C88FF2C1ED9446882
:100340005FF0000606F1080702FA07F50F882F4054
:10035000AF420FD14FEA860C0EFA0CF7BC4303FAFA
:100360000CF73C43CF78282F00D14561CF78482F38
:1003700000D10561761C082EE4D34460F0BDFEE791
:10038000FEE77047024908430249086070470000D1
:100390000000FA050CED00E070470000044A002957
:1003A000116901D0014300E08143116170470000F1
:1003B00000100240044A0029916901D0014300E085
:1003C000814391617047000000100240044A0029F7
:1003D000D16801D0014300E08143D1607047000043
:1003E0000010024030B51F494A6812F00C031E4A43
:1003F00003D0042B01D0082B21D002604A680F23C0
:100400001A4C03EA1212A35C0268DA4042604B689D
:10041000072505EA1323E35C22FA03F383604B68A4
:1004200005EAD323E35CDA40C2604968032303EAA8
:100430009131231F595CB2FBF1F1016130BD4A6873
:100440004B6802F470124FF0020413F4803F04EB87
:10045000924202D04B689B0301D5054B00E0024B52
:100460005A43CAE70010024000127A00240000201C
:1004700000093D0000687047704700000CB500217E
:10048000264801910091026842F4803202604FF4E4
:10049000A063026802F400320092019A521C019299
:1004A000009A12B9019A9A42F3D10268920333D5A5
:1004B000012100911A490A6842F010020A600A6894
:1004C00022F003020A600A6842F002020A604168F0
:1004D000416041684160416841F480614160416828
:1004E00021F47C114160416841F4E81141600168E8
:1004F00041F08071016001688901FCD5416821F0FB
:1005000003014160416841F0020141604168C1F36B
:1005100081010229FAD10CBD00910CBD00100240EE
:10052000002002404FF0E0210428086903D020F0A9
:1005300004000861704740F00400FAE770470000CB
:100540000F4810B5016841F00101016041680D4A92
:100550001140416001680C4A11400160016821F4BA
:1005600080210160416821F4FE0141604FF41F01C8
:100570008160FFF783FF05494FF00060086010BD00
:10058000001002400000FFF8FFFFF6FE08ED00E05B
:10059000C943018070470029818902D041F400518C
:1005A00001E021F40051818170470000174910B526
:1005B00088420AD101218C032046FFF707FF20461D
:1005C000BDE810400021FFF701BF1149884202D168
:1005D00001214C0410E00F49884202D101218C0412
:1005E0000AE00D49884202D10121CC0404E00B4904
:1005F00088420AD101210C052046FFF7CFFE204694
:10060000BDE810400021FFF7C9BE10BD0038014011
:100610000044004000480040004C004000500040B2
:1006200030B50446008A85B00D464CF6FF7108408F
:10063000E98801432182A1894EF6F3100140A88880
:100640002A8910436A890A431043A081A08A4FF681
:10065000FF410840A9890143A1826846FFF7C2FE15
:100660001948844201D1039800E00298A189090445
:1006700000EBC00101EB0010296801D5490000E042
:100680008900B0FBF1F06422B0FBF2F109010B0923
:100690006FF018056B4300EB8300A3891D044FF036
:1006A000320306D503EBC000B0FBF2F000F0070008
:1006B00005E003EB0010B0FBF2F000F00F00084380
:1006C000208105B030BD000000380140FEE77047D2
:1006D00010B56FF00400FFF725FF094809490068CD
:1006E000B0FBF1F0C1B2084801EB41020170C2EB6E
:1006F000C1114FF6FF7202EAC101418010BD000036
:100700000000002000127A001800002004490A8826
:100710005206FCD5024AC1B2121D1180704700007A
:100720000038014010B50168074A1140B1F1005F7F
:1007300009D14168054C21600068FFF725FD20685C
:10074000BDE81040004710BD0000FE2F140000203F
:1007500010B54FF4A060FFF715FE4FF4613000F0C4
:1007600031F8FFF7B5FF0C48FFF784FE0824B0F11D
:100770005A3F0BD009A0FFF72DFD0C484168B4EBA0
:10078000116F01D1FFF7CEFF002010BD08A0FFF7C9
:1007900021FD0B48F2E7000000F003082046495213
:1007A0004D5741524520300D0A000000003000082E
:1007B000204649524D5741524520310D0A00000054
:1007C0000010020870B50446012186B08803FFF7C7
:1007D000F1FD01210420FFF7EDFD1B4D2846FFF739
:1007E000E5FE6815ADF8100018208DF81300032001
:1007F000164E8DF8120004A93046FFF76FFD28153C
:10080000ADF8100004208DF8130004A93046FFF75E
:1008100065FD0020ADF80400ADF80600ADF8080055
:10082000ADF80C000C20ADF80A000094694628468B
:10083000FFF7F6FE01212846FFF7ADFE40212846CE
:10084000FFF7A6FE06B070BD003801400008014069
:100850007008000800000020340000002801000893
:10086000A4080008340000206424000044010008AB
:1008700000A24A040000000000000000010203047E
:10088000060708090000000000000000000000004A
:100890000204060800000000010203040102030430
:0408A0000607080936
:04000005080000ED02
:00000001FF
