:020000040800F2
:10000000982400209D040008290200082B02000803
:100010002D0200082F020008310200080000000035
:100020000000000000000000000000003302000893
:1000300035020008000000003702000839020008FD
:10004000B7040008B7040008B7040008B7040008A4
:10005000B7040008B7040008B7040008B704000894
:10006000B7040008B7040008B7040008B704000884
:10007000B7040008B7040008B7040008B704000874
:10008000B7040008B7040008B7040008B704000864
:10009000B7040008B7040008B7040008B704000854
:1000A000B7040008B7040008B7040008B704000844
:1000B000B7040008B7040008B7040008B704000834
:1000C000B7040008B7040008B7040008B704000824
:1000D000B7040008B7040008B7040008B704000814
:1000E000B7040008B7040008B704000800F002F8DD
:1000F00000F03AF80AA090E8000C82448344AAF188
:100100000107DA4501D100F02FF8AFF2090EBAE885
:100110000F0013F0010F18BFFB1A43F0010318473B
:10012000AC070000CC070000103A24BF78C878C1A3
:10013000FAD8520724BF30C830C144BF04680C60ED
:10014000704700000023002400250026103A28BF35
:1001500078C1FBD8520728BF30C148BF0B60704739
:100160001FB51FBD10B510BD00F06AFB1146FFF7AB
:10017000F7FF00F00DF800F09CFB03B4FFF7F2FF6F
:1001800003BC00F03BF9000080F3088870470000D2
:1001900010B54FF4A06000F0A1F94FF4E13000F089
:1001A00037F900F0DDF800F0F5F80221124800F010
:1001B000FEF940F2DC5000F004F9104800F0CEF8EF
:1001C000082468B10EA000F0FDFA11480068B4EBF5
:1001D000106F03D10E48001F00F0AAF8002010BDD8
:1001E0000CA000F0EFFA0F480068B4EB106FF5D1E7
:1001F0000C48001FF0E700000008014000FC010867
:100200004649524D574152452030210D0A00000009
:10021000041400084649524D5741524520310D0AF9
:1002200000000000040801087047FEE7FEE7FEE753
:10023000FEE7704770477047704700000CB500211B
:10024000364801910091026842F4803202604FF416
:10025000A063026802F400320092019A521C0192DB
:10026000009A12B9019A9A42F3D10268920333D5E7
:10027000012100912A490A6842F010020A600A68C6
:1002800022F003020A600A6842F002020A60416832
:10029000416041684160416841F48061416041686A
:1002A00021F47C114160416841F4E811416001682A
:1002B00041F08071016001688901FCD5416821F03D
:1002C00003014160416841F0020141604168C1F3AE
:1002D00081010229FAD10CBD00910CBD0F4810B567
:1002E000016841F00101016041680E4A114041601E
:1002F00001680D4A11400160016821F4802101600C
:10030000416821F4FE0141604FF41F018160FFF755
:1003100095FF06494FF00060086010BD00100240D4
:10032000002002400000FFF8FFFFF6FE08ED00E0AD
:1003300010B50168074A1140B1F1005F09D1416869
:10034000054C21600068FFF71FFF2068BDE81040E2
:10035000004710BD0000FE2F1400002000887047E9
:1003600038B50121042000F065F90220ADF8000045
:1003700010208DF803000320054C8DF8020069461B
:10038000204600F0C1F80221204600F00EF938BDE9
:100390000008014010B56FF0040000F0A4F8144804
:1003A00014490068B0FBF1F0C1B2134801EB4102FF
:1003B0000170C2EBC1114FF6FF7202EAC101418028
:1003C00010BD0D49498848434FF0E02148610022A3
:1003D0008A61086940F0010008610869C30701D01B
:1003E000C003FAD5086920F0010008618A617047EE
:1003F0000000002000127A001800002070472549F4
:100400000A885206FCD5234AC1B2121D11807047DA
:1004100070B50446012186B0880400F014F901216A
:10042000082000F007F91B4D284600F02FF9281589
:10043000ADF8100018208DF813000320164E8DF82B
:10044000120004A9304600F05FF8E814ADF810007F
:1004500004208DF8130004A9304600F055F8002060
:10046000ADF80400ADF80600ADF80800ADF80C00DA
:100470000C20ADF80A0000946946284600F036F9D1
:100480000121284600F085F94021284600F08BF92B
:1004900006B070BD00480040000C0140094880478C
:1004A00009480047FEE7FEE7FEE7FEE7FEE7FEE756
:1004B000FEE7FEE7FEE7FEE704480549054A064B6E
:1004C00070470000DD020008ED00000898000020E1
:1004D00098240020982000209820002008490843F4
:1004E0000849086070474FF0E0210428086903D0EC
:1004F00020F004000861704740F00400FAE70000B3
:100500000000FA050CED00E0F0B5CA78002502F015
:100510000F03D20601D58A7813430A784FF00F0EE5
:1005200012F0FF0F4FF001021CD004680F8802FA8E
:1005300005F63740B74211D14FEA850C0EFA0CF799
:1005400024EA070703FA0CF43C43CF78282F02D0A3
:10055000482F02D002E0466100E006616D1C082DC4
:10056000E4D304600C88FF2C1ED944685FF00006B9
:1005700006F1080702FA07F50F882F40AF420FD1A6
:100580004FEA860C0EFA0CF7BC4303FA0CF73C4317
:10059000CF78282F00D14561CF78482F00D1056151
:1005A000761C082EE4D34460F0BD016170474161C0
:1005B0007047000030B531494A6812F00C03304AE8
:1005C00003D0042B01D0082B21D002604A680F23EE
:1005D0002C4C03EA1212A35C0268DA4042604B68BA
:1005E000072505EA1323E35C22FA03F383604B68D3
:1005F00005EAD323E35CDA40C2604968032303EAD7
:100600009131231F595CB2FBF1F1016130BD4A68A1
:100610004B6802F470124FF0020413F4803F04EBB5
:10062000924202D04B689B0301D5174B00E0144B5C
:100630005A43CAE7114A0029916901D0014300E0F9
:100640008143916170470D4A0029D16901D001436E
:1006500000E08143D1617047084A0029D16801D088
:10066000014300E08143D1607047044A00291169C9
:1006700001D0014300E08143116170470010024046
:1006800000127A002400002000093D00474910B5FF
:1006900088420AD101218C032046FFF7DDFF204666
:1006A000BDE810400021FFF7D7BF4149884202D181
:1006B00001214C0410E03F49884202D101218C0401
:1006C0000AE03D49884202D10121CC0404E03B49C3
:1006D00088420AD101210C052046FFF7C6FF2046BB
:1006E000BDE810400021FFF7C0BF10BD30B5044683
:1006F000008A85B00D464CF6FF710840E988014339
:100700002182A1894EF6F3100140A8882A8910435E
:100710006A890A431043A081A08A4FF6FF4108402E
:10072000A9890143A1826846FFF744FF1F4884421C
:1007300001D1039800E00298A189090400EBC001EF
:1007400001EB0010296801D5490000E08900B0FBE9
:10075000F1F06422B0FBF2F109010B096FF018050A
:100760006B4300EB8300A3891D044FF0320306D5D1
:1007700003EBC000B0FBF2F000F0070005E003EB74
:100780000010B0FBF2F000F00F000843208105B02C
:1007900030BD0029818902D041F4005101E021F4EB
:1007A000005181817047C943018070470038014082
:1007B0000044004000480040004C00400050004011
:1007C000704700000FB4044910B503AA029800F066
:1007D00009F810BC5DF814FB1C000020704770473E
:1007E00070477047074B70B50D467B4400F011F819
:1007F0000446284600F020F810B14FF0FF3070BDDD
:10080000204670BD11FCFFFF01694A1C0261087897
:10081000704700B58FB0CDE9013100210591054940
:100820007944CDE903101146684600F02EF80FB068
:1008300000BD0000E5FFFFFF007B00F08000704777
:10084000754600F03FF8AE4605006946534620F075
:100850000700854618B020B5FFF72EFEBDE8204002
:100860004FF000064FF000074FF000084FF0000B6C
:1008700021F00701AC46ACE8C009ACE8C009ACE81F
:10088000C009ACE8C0098D4670472DE9F041064625
:100890000024D6E90170F5688046304603E0414601
:1008A000B847641C3046A8470028F8D12046BDE868
:1008B000F08110B50446AFF300802046BDE810403B
:1008C000FFF75BBC0048704734000020EC080008CC
:1008D0000000002034000000280100082009000862
:1008E00034000020642400004401000800A24A04EF
:1008F00000000000000000000102030406070809D0
:1009000000000000000000000000000002040608D3
:1009100000000000010203040102030406070809A5
:04000005080000ED02
:00000001FF
