:020000040802F0
:10100000908C0020A5120208BB540208AB370208DE
:10101000AD4F0208C9290208176E0208000000003F
:101020000000000000000000000000000D12020897
:10103000292F02080000000051120208456602082C
:10104000BF12020829560208BF120208455A0208B8
:10105000BF120208BF120208BF120208BF12020824
:10106000BF120208BF120208BF120208BF12020814
:10107000BF120208BF120208BF120208BF12020804
:10108000BF120208BF120208BF120208BF120208F4
:10109000BF120208BF120208BF120208BF120208E4
:1010A000BF120208BF120208BF120208BF120208D4
:1010B0003167020851670208BF120208BF12020816
:1010C000BF120208BF120208BF120208BF120208B4
:1010D000BF120208BF120208556A0208DD6A020840
:1010E000BF120208BF120208BF120208BF12020894
:1010F000BF120208BF120208BF120208BF12020884
:10110000BF120208BF1202087D670208BF12020860
:10111000BF120208BF120208BF120208BF12020863
:10112000BF120208BF120208BF120208BF12020853
:1011300000F002F800F05AF80AA090E8000C82448F
:101140008344AAF10107DA4501D100F04FF8AFF26C
:10115000090EBAE80F0013F0010F18BFFB1A43F095
:1011600001031847F828010018290100103A24BF8C
:1011700078C878C1FAD8520724BF30C830C144BFFC
:1011800004680C607047000000230024002500263E
:10119000103A28BF78C1FBD8520728BF30C148BFDA
:1011A0000B60704703681B0A28BF41F08001642967
:1011B00000F07E81782900F0F581E42900F0B48107
:1011C000732901F01480002070471FB59DE80300CB
:1011D00000F002FF01F008FB04000020002110F0E5
:1011E000EDFB401C60601FBD10B510BD01F0D6FACC
:1011F0001146FFF7EAFF0AF00BF901F0F9FA03B420
:10120000FFF7F2FF03BC05F00FFE0000224B196848
:101210000868B0E8F00F80F30988BFF36F8F4FF0D4
:10122000000080F311884EF00D0E704700000000A2
:1012300006480068006880F3088862B661B6BFF3AC
:101240004F8FBFF36F8F00DF00BF00BF08ED00E0DE
:10125000EFF30980BFF36F8F0F4B1A6820E9F00F8F
:10126000106008B54FF0300080F31188BFF34F8F46
:10127000BFF36F8F0FF0F0FB4FF0000080F3118889
:10128000BDE8084019680868B0E8F00F80F30988E5
:10129000BFF36F8F704700BFA4000020EFF30580FD
:1012A000704700000948804709480047FEE7FEE70D
:1012B000FEE7FEE7FEE7FEE7FEE7FEE7FEE7FEE706
:1012C00004480549054A064B704700006566020858
:1012D0003111020890740020908C0020908400202E
:1012E00090840020704770B5064600F055FE0568F2
:1012F00006F10B0020F00704B4429CBF002070BD33
:101300002B466A68BAB11068A04210D304F10801F4
:1013100088423CBF5068586007D35168101941603B
:101320001168091B016058601460101D70BD1346E0
:101330005268002AE7D12146284600F039FE0028ED
:10134000DED170BD70B50446051F00F025FE0068B3
:10135000002C14BF446870BD002C18BFAC423CBFC9
:1013600020466468F8D301680A18AA4218BF45608D
:1013700003D12A6805461144016028684119A14239
:101380001CBF6C6070BD616869602168084428609A
:1013900070BD00000FB4044910B503AA029800F014
:1013A0002BFF10BC5DF814FB840000200FB41CB5AB
:1013B000084B06AA7B4469460090059800F0E5FEBC
:1013C00004460020694600F0F3FE20461CBC5DF890
:1013D00014FB0000F90D00000FB47CB50C0009AA45
:1013E000009001D02044401E084B7B446946019088
:1013F000089800F0CAFE05461CB10020694600F0BE
:10140000D7FE28467CBC5DF814FB0000CD0D000023
:1014100070B5044685690068C10601D5302600E034
:101420002026C00707D070BDD4E90121304690477F
:10143000206A401C20626D1EF6D570BD70B5044652
:1014400085690078C00707D170BDD4E9012120204B
:101450009047206A401C20626D1EF6D570BD70B5A5
:101460000C460546012A05D02878800600D5EA6991
:10147000002302E0012305E05B1C934202D2E05C02
:101480000028F9D1A869E618C01AA861286A18448A
:1014900028622846FFF7BCFF04E0D5E9012114F8D3
:1014A000010B9047B442F8D32846FFF7C7FF70BD41
:1014B0002DE9F0410646002410687529314616A52D
:1014C00010D0AFF30080002802DA404213A507E0F5
:1014D00031688A0701D512A502E0490704D511A594
:1014E000012401E0AFF3008000210A2206F1240765
:1014F00009E0B0FBF2FCB0FBF2F302FB1C00303061
:1015000078541846491C0028F3D123462A46304611
:10151000BDE8F04100F0DBBD000000002D00000040
:101520002B000000200000002DE9F0418046D21D74
:1015300022F007020025D2E90002F52915A614D0F1
:10154000011E72F1000106DA0023D0EB030063EB09
:10155000020211A608E0D8F800108B0701D50FA6EB
:1015600002E0490701D50EA601251146002408F125
:10157000240704E000F066FD30323A55641C50EA5E
:101580000102F7D12B46324621464046BDE8F041E4
:1015900000F09DBD000000002D0000002B000000A9
:1015A0002000000070B504460D4621461068AFF3D8
:1015B00000802188090502D50F4A7A4402E00E4ACC
:1015C0007A440E32002104F1240305E000F00F06F6
:1015D0000009965D5E54491C0028F7D1207800234D
:1015E000000704D5702D02D009B102231132204624
:1015F000BDE8704000F06BBD562401002DE9F05F9E
:10160000894604464FF0000ADFF874B1FB44C0F885
:1016100020A02046E1688847002874D0252806D0FD
:10162000D4E901219047206A401C2062F1E700269E
:101630005F462046E16888472028054607DB312DB4
:1016400005D2781910F8200C08B10643F1E7B0076D
:1016500001D526F00406C4F81CA00027C4F818A081
:101660002A2D09D0284605F0D8FB38B304EB8708AB
:10167000303DC8F8185019E059F8041B204604EB17
:1016800087029161E1688847012F054618D1E0691A
:10169000002820DA26F020061DE0D8F8180000EB1C
:1016A000800005EB40003038C8F818002046E1689B
:1016B0008847054605F0B1FB0028EED1012F0AD07E
:1016C0002E2D08D12046E16888477F1C0546022F51
:1016D00046F02006C4DBA069002803DA404246F049
:1016E0000106A061F00701D026F010066C2D0BD08A
:1016F000682D09D04C2D39D06A2D35D0742D35D0B8
:101700007A2D33D016E038E0E1682F46204688472E
:10171000B842054609D16C2F26D04FF48060E168AD
:10172000064320468847054604E06C2F1AD04FF444
:10173000807006430DB3A5F14100192802D8203569
:1017400046F400664A462946204626604E46FFF784
:1017500029FD80B101280BD0F61D26F0070000F10D
:10176000080956E74020E4E78020D8E70020D6E7C4
:1017700006F104094DE7284652E7206ABDE8F09FCC
:101780002C2401000FB400B58DB010A90990009170
:101790000B904FF0FF300A9000200C9006487844E0
:1017A0000690064878446A4607900F9909A800F009
:1017B00049FD0DB05DF814FBC30A0000DB0A000010
:1017C0002DE9FF5F1D464FF0FF3B91464FF00008AB
:1017D0005F46D5E90146A96901987F1C8847296AB7
:1017E000824688470028F6D1BAF1FF3F0CD0002E80
:1017F00024F4C06419DD600614D5BAF12B0F09D0AA
:10180000BAF12D0F0ED103E0584604B0BDE8F09FA9
:1018100044F48064A96901987F1C8847761E82463B
:10182000002E02DDBAF1300F03D0B9F1000F26D03F
:1018300032E0A969761E01987F1C44F40074884741
:10184000002E824605DDBAF1780F06D0BAF1580FA6
:1018500003D0B9F1000F10D01EE0B9F1000F02D093
:10186000B9F1100F18D1A969761E01987F1C24F4D4
:10187000007488478246102002E0082000E00A2019
:10188000814609E0A96908FB0908761E01987F1CBA
:1018900044F4007488478246002E05DD49465046D0
:1018A00000F0BCFC0028EDDAE96901988847A00542
:1018B00002D46FF00100A8E7E00725D1600613D538
:1018C000600502D5C8F1000000E0404629680A1D05
:1018D0002A600968220501D5087015E0220701D5A4
:1018E000088011E008600FE02868011D2960006889
:1018F000210502D580F8008006E0210702D5A0F876
:10190000008001E0C0F8008038467EE72DE9FF5FE7
:101910004FF000089946144646469169D2E901A75E
:10192000DDF838B001988847054659EA0B0005D024
:1019300009E0A1690198761C88470546216A284676
:1019400088470028F5D1681C03D05FEACA7005D02B
:1019500015E04FF0FF3004B0BDE8F09F2068011D96
:101960002160D0F800800AE05FEACA7001D108F86F
:10197000015BA169761C01987F1E88470546002FF0
:101980001ADD681C18D0B9F1000F0DD0E81705EB6F
:10199000D060421120F01F0059F822102A1A0120AD
:1019A00090400142E0D107E0BBF1000FDCD12846B6
:1019B000216A88470028D7D0E16901988847BBF1A0
:1019C000000F07D1002E05DD5FEACA7002D10021A9
:1019D00088F80010A068B84203DDBBF1000F03D007
:1019E00017B16FF00100B6E73046B4E770B50646B0
:1019F00000F0D6FA0468054630460A22002100F0BD
:101A000051FC2C6070BD401ECAB210F8011F8A4202
:101A100002D00029F9D10020704730B505460B46A9
:101A20002A4613F8014B12F8010B08B1A042F8D076
:101A30001CB1002802D06D1CF1E7284630BD40EAF9
:101A4000010310B59B070FD1042A0DD310C808C994
:101A5000121F9C42F8D020BA19BA884201D901203D
:101A600010BD4FF0FF3010BD1AB1D30703D0521C88
:101A700007E0002010BD10F8013B11F8014B1B1BC3
:101A800007D110F8013B11F8014B1B1B01D1921E2D
:101A9000F1D1184610BD10B5431C02E010F8011B2F
:101AA00071B18107FAD14FF0013202C88C1A8C4310
:101AB00014EAC211F9D0C01A0A0603D0C01E10BD24
:101AC000C01A10BD0A0401D0801E10BD0902FCD04E
:101AD000401E10BD40EA010370B59B072ED14FF0A8
:101AE0000136042A2AD308C810C99D1B9D43121F22
:101AF00015EAC61517D0D8B2E1B2401A50EA05610E
:101B000010D198B2A1B2401A50EA05410AD123F08F
:101B10007F4024F07F41401A50EA052102D1180E7F
:101B2000A0EB146070BDA342DBD018BA21BA884282
:101B300001D9012070BD4FF0FF3070BD0AB90020FF
:101B400070BD10F8013B11F8014B63B1A3420AD1FB
:101B5000521E08D010F8013B11F8014B1BB1A342F3
:101B600001D1521EEDD1181B70BD421E12F8013F6B
:101B7000002BFBD111F8013B002B02F8013BF9D1FE
:101B80007047032A40F2308010F0030C00F01580FB
:101B900011F8013BBCF1020F624498BF11F801CB70
:101BA00000F8013B38BF11F8013BA2F1040298BFD5
:101BB00000F801CB38BF00F8013B11F0030300F03F
:101BC0002580083AC0F0088051F8043B083A51F8E3
:101BD00004CBA0E80810F5E7121D5CBF51F8043BE8
:101BE00040F8043BAFF30080D20724BF11F8013B5B
:101BF00011F801CB48BF11F8012B24BF00F8013BBD
:101C000000F801CB48BF00F8012B704710B5203A0F
:101C1000C0F00B80B1E81850203AA0E81850B1E8A5
:101C20001850A0E81850BFF4F5AF5FEA027C24BF5B
:101C3000B1E81850A0E8185044BF18C918C0BDE852
:101C400010405FEA827C24BF51F8043B40F8043B1B
:101C500008BF7047D20728BF31F8023B48BF11F8D0
:101C6000012B28BF20F8023B48BF00F8012B70472A
:101C700002F0FF0343EA032242EA024200F002B804
:101C80004FF000020429C0F0128010F0030C00F0A5
:101C90001B80CCF1040CBCF1020F18BF00F8012B23
:101CA000A8BF20F8022BA1EB0C0100F00DB85FEAF1
:101CB000C17C24BF00F8012B00F8012B48BF00F8BD
:101CC000012B70474FF0000200B51346944696462C
:101CD000203922BFA0E80C50A0E80C50B1F120013F
:101CE000BFF4F7AF090728BFA0E80C5048BF0CC0ED
:101CF0005DF804EB890028BF40F8042B08BF70474B
:101D000048BF20F8022B11F0804F18BF00F8012BBC
:101D1000704710B5044610F0030F08BF11F0030F11
:101D200040F015804FF0013E121FC0F20E8051F8B6
:101D3000043BA3EB0E0C2CEA030C1CEACE1C08BFE0
:101D400040F8043BF0D0A1F1040102F10402521E5C
:101D500008DB11F8013B002B00F8013BF7D11146DD
:101D6000FFF78EFF204610BD4FF0013C50F8042BCA
:101D700051F8043B9A4221D1A2EB0C03934313EA9E
:101D8000CC1317D150F8042B51F8043B9A4215D1CB
:101D9000A2EB0C03934313EACC130BD150F8042BA2
:101DA00051F8043B9A4209D1A2EB0C03934313EA86
:101DB000CC13DBD04FF00000704700BFD01A01BA3F
:101DC000B1FA81F101F0180122FA01F0CB40C1F122
:101DD0002001DBB2C0B2C01A2CFA01F3D11A914330
:101DE00011EAC311E6D1704710B503681C1404EB67
:101DF00021449BB289B2194494FBF2F302FB1343D2
:101E000094FBF2F401EB034393FBF2F102FB11317B
:101E100093FBF2F301E05B1E11440029FBDB016040
:101E200003EB044010BD2DE9F04704464FF0FF3AA4
:101E300086B00068029060680390A0680490E06833
:101E4000019020690090656905F18040B0F1004F74
:101E50007DD83C22002102A8FFF7C6FF3C220146A4
:101E600003A8FFF7C1FF1822014604A8FFF7BCFF33
:101E7000411E40F2B55201A8FFF7B6FF0C220646FC
:101E800068460021FFF7B0FF00EB860028443E4D76
:101E900000267D440FE09A1A491CCDE90012022960
:101EA00002D00C2907D104E0810704D0521C019212
:101EB00001E0401C00960099019B6A5C9A42EADDB1
:101EC000012906D11C2B04D1810702D00221CDE9C2
:101ED0000016A0F146018B2940D20199009B0022F7
:101EE0000F4602E0AE5C521C31449A42FADB012BF1
:101EF00002DD820700D0491E40F2B55540F26D1652
:101F0000C21700EB927292106A4300F0030505FBC2
:101F1000062285070A4400D1521E049D02EB4206A8
:101F2000DDF80C80A94605EBC605184EC5EB051576
:101F3000DDF808C008EB850535442E14ADB2C6EBBC
:101F40000616C5EB0515B6000CEB850500E005E0AF
:101F500006EB154666F31F45360C03D0504606B017
:101F6000BDE8F087C4E904307F1C0720521CC4E997
:101F7000029792FBF0F3E4E806C800FB132084E824
:101F800003042846EBE70000B71B0100A039CEFD93
:101F9000704770477047704700487047387400209A
:101FA0000048704730740020704770477047704792
:101FB00038B504460A4600206946AFF30080002881
:101FC00008BF38BD02460099204600F0AFF9012055
:101FD00038BD012000F0DBBBF8B5AFF3008005464B
:101FE00000200C46102000BF0646A819A0420DD9BB
:101FF000324669460020AFF30080070008BF00F0BA
:10200000C6FB0098A04218BF0546C419FFF7C4FFDD
:1020100005600746F01D20F007004619284600F02D
:102020000AF8B44208BFF8BDA21B31463868BDE8C3
:10203000F84000F07BB900210160C0E90110704751
:102040001020704730B5B0F10A024FEA900E71F1DE
:1020500000034EEA817EB0EB0E0061EB91014FEA86
:10206000101E4EEA017E10EB0E0041EB11114FEAFB
:10207000102E4EEA016E10EB0E0041EB11214FEADB
:10208000104E4EEA014E10EB0E0041EB114140188C
:1020900041F100014FEAD00040EA41704FEAD1011E
:1020A00010EB80054FEA810444EA907444EB01048C
:1020B0006D1944EB0404521BA3414FF0000348BFC9
:1020C0000A3200D530BD401C41F1000130BD2DE980
:1020D000F0470D4699469246044600F124080168EF
:1020E000880604D5E06921F01001216000E001209C
:1020F000A84201DD471B00E00027A1697A1902EB25
:102100000900081AA0612078C00602D42046FFF713
:102110007FF9002608E0D4E901211AF8060090476B
:10212000206A401C761C20624E45F4DB2078C006F5
:102130000AD52046FFF76CF906E0D4E901213020EA
:102140009047206A401C2062381EA7F10107F4DC8A
:1021500007E0D4E9012118F805009047206A401CE7
:102160002062281EA5F10105F3DC2046FFF766F981
:102170002078000602D50220BDE8F0870120FBE7A9
:1021800001694A1C02610878704700B58FB0CDE93B
:1021900001310021059105497944CDE9031011462B
:1021A0006846FFF72BFA0FB000BD0000E5FFFFFF08
:1021B0000A6802F8010B0A607047D1E900239A42CD
:1021C00002D2531C0B601070704710B5436913B1F5
:1021D000AFF3008001E0FFF742F9012010BD127853
:1021E00000F124010A7000224A700122EDE7116813
:1021F0004FF0FF32E9E70000074B70B50D467B4416
:10220000FFF7C3FF0446284600F0BDFA10B14FF0B7
:10221000FF3070BD204670BDDF8700003A2800D235
:10222000303820F02002412A01D3A2F13700884241
:1022300001D34FF0FF3070470268114413780160FA
:1022400018467047D1600549794451610449794481
:10225000116200211161114600F08CB8EDFFFFFF03
:102260000F010000426842B1016811F8013B23B13F
:10227000521EC0E90012184670470121C160881E35
:10228000704742685AB1C368016843B983688B429A
:1022900005D0491E521CC0E90012002070474FF0C3
:1022A000FF3070472DE9F04791460F4680460446BF
:1022B000002614F8015B2DB100F030F80068405D95
:1022C000C007F6D12B2D02D02D2D18D0641E4A4602
:1022D0003946204600F008FA27B13968A14201D1F9
:1022E000C7F800804FF0020471050BD5404200286A
:1022F00003DDFFF755FE0460A007BDE8F08746F454
:102300008066E4E70028F8DAFFF74AFE04606FF021
:102310000040F2E7004870473074002010B500F02C
:1023200063FA001D10BD00BF95F60000034640682B
:102330008C46002818BF88423CBF03464068F8D34B
:1023400018681844884207D00CF1030020F00700F9
:10235000001D411A521A0146081D0A60FEF7F2BF1D
:1023600010B50446FFF7DAFF0068005D00F00100D9
:1023700010BD00002DE9F34F4FF0000A0C46564601
:102380008DB001200C9001F10C000B9062690B984C
:1023900001219047051E2DD0252D2CD0216A88477C
:1023A000C0B162690B9801219047216A88470028D3
:1023B000F7D16269411E0B98904700E0761CA16935
:1023C0000D988847216A88470028F7D1E1690D9860
:1023D0008847DBE7A1690D988847A842074601D1E5
:1023E000761CD3E7E1690D9888477F1C02D1BAF1CA
:1023F000000F6FD06BE162690B9800273D463946AC
:1024000090472A2804D162690B9801219047012541
:10241000DFF8D08262690B9801219047A0F130016A
:102420000A290AD24745E5DC07EB870100EB4107A3
:10243000303FDFD445F01005ECE7E90601D46FF03A
:1024400000476C280AD04C2814D0682815D06A2878
:102450000DD074281CD07A281AD01DE062690B9820
:10246000012190476C2802D045F0040514E045F0A6
:1024700002050DE045F020050AE062690B98012194
:102480009047682802D045F0080505E045F400654E
:1024900062690B9801219047C4E9015765283DD036
:1024A00019DC58287AD00CDC452837D004DC2528E4
:1024B00026D041289ED131E046282FD0472899D1F7
:1024C0002CE05B2877D0612828D063287CD0642852
:1024D00023D15AE0F6E06F2848D008DC66281DD0EA
:1024E00067281BD0692821D06E2816D127E07028D4
:1024F00045D0732868D0752847D078280DD14DE095
:10250000A1690D988847252805463FF469AFE16920
:102510000D9888476D1C3FF46AAFD8E00D992346AB
:102520006A466FF00100AFF30080C5E045F040005F
:1025300023464FF000026060A80736D43EE0E8076B
:102540007FF447AF2068011D21600068290501D58F
:1025500006701BE7290701D5068017E7A90703D5F1
:10256000F117C0E9006111E706600FE745F0400090
:1025700023464FF008026060A80716D41EE040F61C
:102580000E0125EA0100606016E045F04000234698
:102590004FF00A026060A80707D40FE045F0400042
:1025A0006060A80708D5234610220D996FF001003E
:1025B000AFF3008080E007E0102223460D996FF012
:1025C0000100FFF7FDF877E04FF0000963284F4660
:1025D000C8464B46CB4602D05B2806D038E0E8061A
:1025E00001D40120A060012732E06269D4F80CB068
:1025F0000B98012190475E2807D14FF00109494609
:102600006269D4F80CB00B989047216939B9002160
:102610000A4603AB43F82120491C0829FADBD8B34A
:10262000216949B308F1010862690B9801219047BB
:102630005D28F4D1B9F1000F09D0002003A951F8A9
:102640002020D24341F82020401C0828F7DB03ABB0
:102650002069002820794FEA40701ED05B46224650
:10266000CDF80080CDE901970D9900286FF00100A9
:1026700020DAAFF300801FE0C11703AA00EBD1619D
:102680004B1121F01F0102EB8302411A1368012054
:10269000884003431360C7E719E00D9922460028DC
:1026A0006FF00100009702DAAFF3008004E0FFF75B
:1026B0002DF901E0AFF3008000280ADA401C06D1B2
:1026C0000C9820B14FF0FF300FB0BDE8F08F5046AE
:1026D000FAE7E90701D10AF1010A064400200C904B
:1026E00054E60000CCCCCC0C2DE9F05F82461546B8
:1026F0008B4600270AF10104B9460078302801D042
:102700009DB113E014F8010B0127782803D0582855
:1027100001D045B10AE00DB1102D07D1002714F802
:10272000010B102502E0082500E00A250026B0462E
:102730000EE005FB080005FB06F101271FFA80F8F3
:1027400001EB1046B6F5803F00D3B94614F8010BF3
:102750002946FFF763FD0028EBDABBF1000F05D037
:102760000FB1641E00E05446CBF80040B9F1000FF1
:1027700006D0FFF715FC02210160C81EBDE8F09FDE
:1027800048EA0640FAE7007B00F08000704710B589
:1027900000F03CF8BDE8104000F033B87546FFF794
:1027A000B9FDAE4605006946534620F00700854650
:1027B00018B020B5FEF784FDBDE820404FF00006BC
:1027C0004FF000074FF000084FF0000B21F0070119
:1027D000AC46ACE8C009ACE8C009ACE8C009ACE85C
:1027E000C0098D46704700000048704750740020B3
:1027F00010B50446AFF300802046BDE81040FEF758
:10280000FEBC002801D004F00FBB704710B50128B2
:1028100005D0002103A000F021F8012010BD09A17E
:10282000F8E7000053494752544D454D3A204F7543
:1028300074206F662068656170206D656D6F7279B8
:10284000000000003A2048656170206D656D6F7270
:102850007920636F727275707465640070B5054697
:102860000C460A2000E06D1C04F0E0FA35B128782F
:102870000028F8D102E0641C04F0D8FA14B12078E2
:102880000028F8D1BDE870400A2004F0CFBA10B596
:1028900000F0CEFF10BD70B506460C46154608E0A8
:1028A0003046721C96B200F007F804F8010B681E5F
:1028B00085B2002DF4D170BD70B50446002601F03C
:1028C00065F82546E11704EB11610912A02202EB1D
:1028D0004101C8B201F026F801F0A4F8E11704EBB9
:1028E00011610912A4EB0121C8B201F01BF801F03B
:1028F00099F801F04BF8A12001F014F801F092F8DA
:10290000002000F0D7FF064601F066F8304670BDA3
:1029100070B505460C46164606E02178284600F0BC
:1029200009F8681C85B2641C301EA6F101018EB244
:10293000F3D170BD70B504460E4601F027F8254668
:10294000E11704EB11610912A02202EB4101C8B2A8
:1029500000F0E8FF01F066F8E11704EB11610912DD
:10296000A4EB0121C8B200F0DDFF01F05BF83046B6
:1029700000F0D8FF01F056F801F02EF870BD10B548
:10298000012002F021FF002002F01EFF10BD000018
:1029900008B50146002000900348009000980844C4
:1029A00000900098008808BD006C004008B5002227
:1029B0000092044A0092009A02440092009A116028
:1029C00008BD0000006C004000BFFEE710B50446E3
:1029D00024B10221044800F077FC03E00221024800
:1029E00000F070FC10BD0000000C014070B5054601
:1029F0000E46002407E0285D04F05CF8285D04F032
:102A000015F8601C84B2B442F5DB70BD10B5044605
:102A1000204604F043F810BD2DE9F04F8BB0054679
:102A20000E4617469846DDE915ABDDF85090A5F245
:102A30006C700590701E04900397CDF80880CDF857
:102A40000490CDF800A06846FFF7EDF90446214652
:102A50000CA0FEF79FFC4FF4616000FB1B44601C60
:102A600060B101214FF0C05002F06EFE012002F073
:102A70000BFE204603F08CF803F0A8F80BB0BDE87D
:102A8000F08F0000756E69785F74696D65737461AD
:102A90006D703A2025640D0A0000000082688A42A9
:102AA00003D38268521A826001E000228260826849
:102AB0007AB902696AB10269521E0261084A9288B3
:102AC000521E074B9A80D0E900321A4482600122DC
:102AD0000273D0E901329A4201D800220273704792
:102AE000D81C002030B5039C016042600025856041
:102AF000437305692544056130BD0000F0B589B018
:102B000006460C4635461C2102A8FFF7DBF80027D5
:102B1000002020604FF400700AF0BEFDE061E06923
:102B200028B93CA0FEF736FC002009B0F0BD4FF4F8
:102B30000071E069FFF7A4F85CE002A9284600F004
:102B400073FC50B1A81BA06138A0A169FEF722FC5C
:102B50003046FEF7F7FB2068E7E79DF820000628DF
:102B600041D2DFE800F00315191A1B3A2368E16926
:102B7000C8189DF8182002A9FFF703F89DF818104F
:102B800020680844206017B90798206101272BE0CE
:102B900042F21070606127E026E025E001A902A85A
:102BA00000F07DFC27A00199FEF7F4FB606810B9E6
:102BB000019860600CE060680199884208D0A068C4
:102BC00010B90120A06019E0019860600020A060A9
:102BD00024A06168FEF7DEFB06E004F10C0102A808
:102BE00000F074FB00E000BF00BF9DF8180040003B
:102BF0000D300544287800289FD100BFA81BA06194
:102C000020A0A169FEF7C6FB3046FEF79BFB2068BB
:102C10008BE7000070446174612D3E70436F6E74E9
:102C2000656E74204E554C4C0D0A00007044617462
:102C3000612D3E627974655F75736564303A202555
:102C4000640D0A004669726D7761726520307834D0
:102C50003020416464726573733A30782530385897
:102C60000D0A00004669726D7761726520537461C8
:102C7000727420416464726573733A307825303819
:102C8000580D0A0070446174612D3E627974655F6D
:102C900075736564313A2025640D0A0001214020D6
:102CA00002F042BD10B5044621460E48FFF7F6FE7D
:102CB0000C48007B01280AD10A48407B18B9002043
:102CC000FFF784FE0DE00120FFF780FE09E00548D4
:102CD000407B18B90120FFF779FE02E00020FFF7E2
:102CE00075FE10BDE41C002010B5044621460648C0
:102CF00001F04AF80448007B012802D101F03CF8B9
:102D000001E001F031F810BDEC0E002021B10268A5
:102D100042F00102026004E002684FF6FE731A40BE
:102D200002607047F0B58BB007460C4615461E464C
:102D30000121084602F0F8FC384600F01BF8009428
:102D400001950020029003960490802005900020B9
:102D50000690079020200890C001099000200A905A
:102D60006946384600F0C0F801213846FFF7CEFF2B
:102D70000BB0F0BD01684FF6FE72114001600021FA
:102D8000016041608160C1604B49884208D14A4975
:102D90000839496841F00F01474A083A51608AE012
:102DA00045491431884208D143490839496841F0FE
:102DB000F001414A083A51607DE03F49283188429C
:102DC00008D13D490839496841F470613A4A083AE6
:102DD000516070E038493C31884208D136490839A1
:102DE000496841F47041344A083A516063E032491D
:102DF0005031884208D130490839496841F470217E
:102E00002D4A083A516056E02B496431884208D176
:102E100029490839496841F47001274A083A516044
:102E200049E025497831884208D123490839496861
:102E300041F07061204A083A51603CE01F498842E5
:102E400006D1011F096841F00F01021F116032E035
:102E50001A491431884208D11849091F096841F0FC
:102E6000F001164A121F116025E0144928318842EA
:102E700008D11249091F096841F470610F4A121FF5
:102E8000116018E00D493C31884208D10B49091FF7
:102E9000096841F47041094A121F11600BE00749AB
:102EA0005031884207D10549091F096841F4702152
:102EB000024A121F116070470800024008040240D5
:102EC00070B504460D4600212046FFF71FFF294636
:102ED000204600F027F801212046FFF717FF70BDBC
:102EE0000146486880B2704710B50022026847F674
:102EF000F0739A430C6A8B6823430C6923434C6933
:102F000023438C692343CC6923434C6A23438C6A53
:102F100023431A430260CB6843600B6883604B68AD
:102F2000C36010BD416070477047000001490860F0
:102F30007047000014040140014600200022074BA6
:102F40001B6803EA0102054B14331B680B4013B1E5
:102F50000AB1012000E00020704700000004014099
:102F6000002123498279002A3AD00A461268036870
:102F70009A430B461A600A1D126803689A430B1D98
:102F80001A60027911440A6803681A430A60184AF1
:102F90000832126803689A43154B08331A601A1DE9
:102FA000126803689A43124B0C331A604279102A54
:102FB0000ED11A1F126803681A430D4B08331A60AA
:102FC0001A1D126803681A43094B0C331A600DE08E
:102FD0000749427911440A6803681A430A6005E008
:102FE000027911440A6803689A430A607047000036
:102FF000000401400149C860704700000020024001
:1030000030B5044604254FF4302000F085F805461D
:10301000042D17D10C48006940F002000A490861EC
:1030200008464461006940F0400008614FF43020D8
:1030300000F072F805460448006941F6FD71084049
:1030400001490861284630BD0020024004200B4998
:10305000C96801F0010109B101200EE00749C96802
:1030600001F0040109B1022007E00449C96801F038
:10307000100109B1032000E0042070470020024045
:103080000348006940F08000014908617047000072
:103090000020024078B506460C460425002000902A
:1030A000E80200F039F80546042D24D113480069E0
:1030B00040F00100114908613480E80200F02CF86A
:1030C0000546042D10D1B01C0090200C00990880FA
:1030D000E80200F021F805460848006941F6FE7153
:1030E00008400649086106E00448006941F6FE719F
:1030F000084002490861284678BD000000200240CF
:103100000248034948600348486070472301674507
:1031100000200240AB89EFCD00B502460423FFF743
:1031200095FF034603E0FFF791FF0346521E012B74
:1031300001D1002AF7D102B90523184600BD10B508
:103140000446204608F0F6FF10BD2DE9FE438146F7
:103150000F4616469846CDF80880002468460DF0C4
:1031600073FB00BF0025321B39194846029B09F04A
:1031700015F80546002D01DD2C4403E0002D01DA91
:103180002C4607E0B44205DA02A968460EF0EEF8D4
:103190000028E7D000BF2046BDE8FE832DE9F041BE
:1031A000024600250026002000230024002791F875
:1031B00003C00CF00F0591F803C00CF0100CBCF12B
:1031C000000F03D091F802C04CEA050591F800C049
:1031D000BCF1000F31D0146800202BE04FF0010C3F
:1031E0000CFA00F3B1F800C00CEA03069E4220D1AD
:1031F00083004FF00F0C0CFA03F7BC4305FA03FCF5
:103200004CEA040491F803C0BCF1280F06D14FF03A
:10321000010C0CFA00FCC2F814C00AE091F803C0DB
:10322000BCF1480F05D14FF0010C0CFA00FCC2F8BC
:1032300010C0401C0828D1D31460B1F800C0BCF104
:10324000FF0F34DD546800202EE000F1080C4FF031
:10325000010808FA0CF3B1F800C00CEA03069E421C
:1032600021D183004FF00F0C0CFA03F7BC4305FA91
:1032700003FC4CEA040491F803C0BCF1280F05D10B
:1032800000F1080C08FA0CF8C2F8148091F803C099
:10329000BCF1480F07D100F1080C4FF0010808FA03
:1032A0000CF8C2F81080401C0828CED35460BDE84A
:1032B000F0810246002093680B400BB1012000E032
:1032C00000207047416170470161704710B50246A8
:1032D0000B460021002003E00902145C2144401C3D
:1032E000147C8442F8DC1960002010BD70B50446DF
:1032F0000025207800F05BFAC5B22807050E60783B
:1033000000F055FA2844C5B2284670BD2DE9F047B3
:1033100006460C464FF0000830783A2803D04FF0AC
:10332000FF30BDE8F08701257019FFF7DFFF074682
:10333000277408EB070000F0FF08AD1C7019FFF7B9
:10334000D5FF0746676108EB070000F0FF08AD1CDA
:103350006069000260617019FFF7C8FF0746606985
:103360003844606108EB070000F0FF08AD1C7019DD
:10337000FFF7BCFF0746277608EB070000F0FF08C1
:10338000AD1C4FF000090CE07019FFF7AFFF04F817
:10339000090014F80900404400F0FF08AD1C09F1D1
:1033A0000109207C4845EFDC6FEA0800401C00F072
:1033B000FF087019FFF79AFF8246D04502D04FF000
:1033C000FF30AEE70020ACE72DE9F04782468946A2
:1033D0003A215046FEF717FB07461FB94FF0FF3062
:1033E000BDE8F0870FA13846FEF717FB054615B973
:1033F0004FF0FF30F4E73C464E464FF0000808E03F
:10340000207800B908E02078307008F10108641CC9
:10341000761CA81C8442F3D300BF002030704046C5
:10342000DEE700000D0A00002DE9F041A8B00446D7
:103430000D4626461C2101A8FEF744FC2046FEF757
:103440002AFB07464FF0000823E0802108A8FEF77A
:1034500039FC08A93046FFF7B7FF8046B8F1000FE6
:1034600004DA4FF0FF3028B0BDE8F0811C2101A83C
:10347000FEF728FC01A908A8FFF748FF10B14FF09C
:10348000FF30F0E71C2201A92846FEF7BFFB002011
:10349000E9E7E019B042D8D84FF0FF30E3E710B5C4
:1034A00002460B460021002003E00902145C21447F
:1034B000401C147C8442F8DC08041860002010BD15
:1034C000F0B58DB0074629480468001D0568001D49
:1034D0000668E0B28DF82800200A8DF82900200C3B
:1034E0008DF82A00200E8DF82B00E8B28DF82C0004
:1034F000280A8DF82D00280C8DF82E00280E8DF846
:103500002F00F0B28DF83000300A8DF83100300C09
:103510008DF83200300E8DF833009DF833009DF8A1
:1035200032109DF831209DF83030CDE90632CDE9DA
:1035300008109DF82F109DF82E209DF82D009DF865
:103540002C30CDE90230CDE904219DF82B009DF807
:103550002A10CDE900109DF829309DF8282004A1FB
:103560003846FDF723FF0DB0F0BD0000E8F7FF1F60
:10357000252E3258252E3258252E3258252E3258D7
:103580002D252E3258252E3258252E3258252E32F2
:10359000582D252E3258252E3258252E3258252EBC
:1035A00032580000002804BF40F6A3707047543022
:1035B00002F0E2BDF0B587B04FF0000516460F46A9
:1035C00004000095019502950395049502BF40F60D
:1035D000A37007B0F0BD1420E06505AA694604F1A8
:1035E000540002F027FE00281CBF07B0F0BD14F104
:1035F00054000FD0017921F0060101711049416595
:10360000104981651049C16510490166C5641049BA
:1036100005654166402204F1140102F0ADFD14225B
:10362000694604F1540002F0A7FDA068E065324647
:10363000394604F1540002F0FDFD07B0F0BD000072
:103640000123456789ABCDEFFEDCBA987654321082
:10365000F0E1D2C3002804BF40F6A37070472DE903
:10366000F84F0446C06800281CBF216900292CDDE2
:10367000B1F5207F29DA2079002520F0060020719D
:10368000464E474F84F85800DFF818B16FEA060835
:103690006FEA0709009540291BDD1420E06584F8D6
:1036A000585014F1540004D000F15001C564A1E851
:1036B000E00BD4E9031202F05FFD6A4604F1140145
:1036C00004F1540002F0B6FD68B140F6A270BDE806
:1036D000F88FE16800982218095C1175401C009071
:1036E00021698842F5DB0098002136230028D8BFE5
:1036F00008464FF00002C8BF014613DD04EB020C80
:10370000521C9CF814A0491E8AF0360A8CF814A0AA
:10371000F4D1C0F1400100291FDD00224028A8BFDC
:10372000002107DAC0F1400111F0010102D00219B5
:1037300013750122C0F1400C8C450EDD00EB020A2E
:10374000A244521C8AF8143000EB020AA244521C14
:10375000891C8AF814308C45F0DC84F8585014F138
:10376000540004D000F15001C564A1E8E00B4022F0
:1037700004F1140102F000FD0020082204EB800196
:10378000801C4B69521E83F06A334B618B6983F056
:103790006A338B61F2D10020BDE8F88F01234567C1
:1037A00089ABCDEFF0E1D2C3704700BFFEE7014621
:1037B000302904DB392902DCA1F13000704761298E
:1037C00004DB662902DCA1F15700F7E7412904DB9D
:1037D000462902DCA1F13700F0E74FF0FF30EDE7BA
:1037E00010B500200F4908600F48006820F07040B5
:1037F0000D4908600846006840F04050086000200D
:103800000A49C1F89C01022004F07EF90120054913
:103810000860022004F078F900200449C1F89801FA
:1038200010BD000098812142000C0140008021421F
:1038300008B50121082001F0A7FFC020ADF8000065
:1038400010208DF8030003208DF80200694604481B
:10385000FFF7A4FCC0210248FFF736FD08BD0000B9
:10386000000C014010B500200F4908600F480068A7
:1038700020F070400D4908600846006840F0405054
:10388000086001200A49C1F89C01022004F03CF9BB
:10389000012005490860022004F036F9002004499F
:1038A000C1F8980110BD000098812142000C014030
:1038B0000080214270B5054600241748006820F0BA
:1038C0007040154908600846006840F000400860F4
:1038D000002616E0002011490860022004F014F9C7
:1038E00001200F49C1F898016006040E0B487C388E
:1038F000006808B1601CC4B2012004F005F9701C16
:10390000C6B2082EE6DB15B9FFF7ACFF01E0FFF702
:1039100067FF204670BD0000000C014098812142E5
:103920000080214270B504461548006820F07040C0
:10393000134908600846006840F0405008600020C5
:1039400010490860002517E0E0090E49091D0860CC
:103950006006040E022004F0D7F801200A49C1F8DD
:103960009801022004F0D0F80020064908600220E7
:1039700004F0CAF8681CC5B2082DE5DB70BD000074
:10398000000C0140988121420080214210B50F486F
:10399000006820F070400D4908600846006840F05B
:1039A0004050086001200A4908600A49C1F898019E
:1039B000042004F0A9F8002005490860042004F060
:1039C000A3F800200349C1F8980110BD000C014084
:1039D0009C8121420080214210B50F48006820F0F0
:1039E00070400D4908600846006840F0405008608B
:1039F00000200A4908600A49C1F89C01042004F02B
:103A000083F80120054908600549C1F89C0104209C
:103A100004F07AF810BD0000000C014098812142AA
:103A20000080214210B500241448006820F0704046
:103A3000124908600846006840F000400860012014
:103A40000F49086004F060F801200E49C1F89801A0
:103A500004F05AF807E0601CC4B2FA2C03DDFFF74B
:103A6000BBFF012010BD0648803800680028F2D155
:103A70000349091F086000BFF4E70000000C014083
:103A80009C812142008021422DE9F04196B00746F9
:103A90000C4615461E46DDF870800D48A0F18203E5
:103AA0000CA24021CDE9000502A8FDF795FC8DF898
:103AB000484000208DF849001496CDF8548012AA91
:103AC00002A9384600F09AFE16B0BDE8F081000069
:103AD000390600202F25732F25732F6332732F256E
:103AE0007300000070B592B004460D464FF0FF36EB
:103AF00063A16648A0F1820365A2CDE900014021DF
:103B000002A8FDF769FC2B46012202A9204601F01C
:103B1000C3F9061E02D0304612B070BD60A15B48EA
:103B2000A0F182035AA2CDE90001402102A8FDF7CD
:103B300053FC2B46012202A9204601F0ADF9061ED6
:103B400001D03046E8E75AA15048A0F1820350A2C4
:103B5000CDE90001402102A8FDF73EFC2B460122E1
:103B600002A9204601F098F9061E01D03046D3E79D
:103B700053A14648A0F1820345A2CDE900014021AE
:103B800002A8FDF729FC2B46012202A9204601F0DC
:103B900083F9061E01D03046BEE74DA13B48A0F197
:103BA00082033BA2CDE90001402102A8FDF714FCED
:103BB0002B46012202A9204601F06EF9061E01D013
:103BC0003046A9E746A13148A0F1820330A2CDE9F1
:103BD0000001402102A8FDF7FFFB2B46012202A9AC
:103BE000204601F059F9061E01D0304694E741A164
:103BF0002648A0F1820326A2CDE90001402102A8B7
:103C0000FDF7EAFB2B46012202A9204601F044F908
:103C1000061E01D030467FE73AA11C48A0F182037E
:103C20001BA2CDE90001402102A8FDF7D5FB2B46E0
:103C3000012202A9204601F02FF9061E01D03046CC
:103C40006AE734A11148A0F1820311A2CDE9000175
:103C5000402102A8FDF7C0FB2B46012202A9204605
:103C600001F01AF9061E01D0304655E7D4F8880055
:103C700018B12046D4F88810884700204CE700008F
:103C8000696E736572745F636F696E003906002038
:103C90002F25732F25732F7332632F257300000098
:103CA0006465766963655F7072697A65000000001B
:103CB0006465766963655F73746174757300000091
:103CC0006465766963655F73657474696E67000027
:103CD0006669726D776172655F6F6E6C696E6500A3
:103CE0006669726D776172655F7570677261646530
:103CF000000000007472616E736665725F646174C7
:103D0000610000006465766963655F6163636F7578
:103D10006E7473006669726D776172655F73657446
:103D200074696E677300000008B50121102001F06E
:103D30002BFD2020ADF8000010208DF8030003209B
:103D40008DF8020069460748FFF728FA2021054848
:103D5000FFF7BAFA05224FF4FA61084600F034F88A
:103D600008BD00000010014010B520210148FFF7F8
:103D7000ABFA10BD0010014010B520210148FFF73B
:103D8000A1FA10BD00100140427B012A1BD18268BC
:103D90008A4203D98268521A826001E0002282605E
:103DA000826852B9026942B10269521E0261D0E9C9
:103DB00000321A44826001220273D0E901329A4231
:103DC00001D800220273704710B5054B1860596086
:103DD0000023034CA3600123637323461A6110BDC3
:103DE000EC0E002070B504460CF0EEF924212046BC
:103DF000FDF746FF242221464FF49C70FEF74BFD51
:103E00000CF026FA2046FDF746FE202814D920465D
:103E1000FDF741FE0546294608A0FDF7BBFA24211F
:103E20002046FDF72DFF242221464FF49C70FEF71B
:103E30006FFD4FF0FF3070BD0020FCE74D44352092
:103E40004B657920494420746F6F206C6F6E673A20
:103E5000202564202833324D415829210D0A0000C5
:103E600070B504460CF0B0F924212046FDF708FF98
:103E7000242221464FF48A70FEF70DFD0CF0E8F97C
:103E80002046FDF708FE202814D92046FDF703FE42
:103E90000546294608A0FDF77DFA24212046FDF7B6
:103EA000EFFE242221464FF48A70FEF731FD4FF0D9
:103EB000FF3070BD0020FCE74D4435204B65792074
:103EC000746F6F206C6F6E673A2025642028333240
:103ED0004D415829210D0A00002818BF002901D0A2
:103EE000002A02DA40F6A3707047037913F0040F3A
:103EF0001CBF40F6A170704710B503F01FFC0020F6
:103F000010BD002819BF0029002A40F6A370704791
:103F10002DE9F0410446806886B0401E90460F4669
:103F2000102822BF40F6A27006B0BDE8F0812079CB
:103F3000694640F004002071204603F093FBA2681C
:103F40006946501E002817DD481E7B1E12F0010F27
:103F500003D110F8012F03F8012FA2684578521EF3
:103F60005FEA620C08D010F8026F5D70457803F8C4
:103F7000026FBCF1010CF6D1A068401E0028A4BF5E
:103F8000095C3954A068C8F8000006B00020BDE8FC
:103F9000F0810000002804BF40F6A370704701794B
:103FA00021F0060101710021C164016504494165E8
:103FB000044981650449C1650449016600207047D0
:103FC0000123456789ABCDEFFEDCBA9876543210F9
:103FD00008B50121102001F0D7FB1020ADF800003A
:103FE0008DF8030003208DF8020069461148FFF7A1
:103FF000D5F80121082001F0C7FB4FF40070ADF89F
:10400000000010208DF8030003208DF8020069469F
:104010000948FFF7C3F84FF400710748FFF754F958
:10402000002000F00FF84FF480720449044801F0BA
:10403000ACFC08BD00100140000C0140000F002046
:104040000010002010B5044624B110210448FFF7E9
:104050003BF903E010210248FFF734F910BD0000DE
:104060000010014010B54FF400710248FFF72CF921
:1040700010BD0000000C014010B54FF40071024863
:10408000FFF720F910BD0000000C014010B586B00C
:1040900004468348007805287CD2DFE800F0032836
:1040A000394AF7007F480068032810D300207D4973
:1040B0000860FFF7E1FF7C4802F09FFC4FF4966137
:1040C000794802F092FC01207549087009E07648B1
:1040D00002F093FC0121744802F07CFC022070493C
:1040E000087070480068401C6E490860D3E06E4854
:1040F00002F088FC58B1FFF7B5FF6B4802F07DFC79
:104100002021694802F066FC022065490870C2E07F
:10411000654802F077FC58B164480460624802F0D8
:104120006CFC0521604802F060FC03205C490870CB
:10413000B1E05D4802F066FC00287CD070215C484C
:10414000FDF7C0FD5BA159480068FDF766FC5749C3
:10415000086008460068801C08600846006818B9B6
:1041600000204F49087096E0504800680078504998
:1041700008604E480068401C4C4908604C48006884
:10418000332861D007DC30280AD0312854D03228B7
:1041900076D155E07BE0342868D0532870D166E0B2
:1041A00043486C30011F05AAA0F12803CDE9002186
:1041B0000290A0F1680240A13C480068FDF7E2FAD5
:1041C0003B48806E18B94FF47A7039498866059873
:1041D000052818D2DFE800F003070B0F13000020BA
:1041E0003349486613E03A48314948660FE0394898
:1041F0002F4948660BE038482D49486607E03748A4
:104200002B49486603E000202949486600BF00BFEB
:104210002748C06E2649896ECDE90010244800F178
:104220004402011D436E002002F008FF10B100207F
:104230001B49087028E028E00020FFF703FF23E077
:104240000120FFF7FFFE1FE004AA25A11748006820
:10425000FDF798FA13480068012806D1124802F0C9
:10426000CCFB1148049902F0C0FB0DE00CE00020EB
:104270000C49086004200A49087005E000E005E0E8
:1042800000200749087000BF00BF04E003E00020E1
:104290000349087000BF00BF002006B010BD000039
:1042A00050000020540000205C1C00204C00002026
:1042B000681C00204040000024255B5E245D24250E
:1042C0005B5E245D2425642425642425640D0A0096
:1042D000DDBF0208E5BD020861BE020855BF020845
:1042E0002425640000200149087070475000002018
:1042F0000146002000BF05E0002301F1280242F83A
:104300003030401C0A28F7DB704740F8801F4260BD
:104310008360803870472DE9F05F04460E461746EB
:104320009846DDE90BABDDF82890C4F88C600025D9
:1043300005E0002104F1280040F835106D1C0A2D1D
:10434000F7DB6760C4F81080C4F80890C4F814A0C4
:10435000C4F80CB00020206260622077A0670120C2
:10436000206004F1900002F048FB04F19C0002F090
:1043700044FB04F1A80001F087F8BDE8F09F10B5F8
:104380000446606A10B12046FFF7B2FF10BD38B591
:1043900004460D466A462946204600F001F838BD1D
:1043A0002DE9F0419AB004460E4615464FF0FF370E
:1043B00058222F4901A8FDF729FC4FF0000804F10D
:1043C000A80001F068F8206A00B13CE017A802F0EC
:1043D00014FB17A8616802F008FB06B901AE308B28
:1043E000A061B07E606204F19C00A16902F0F2FA63
:1043F0003246A168206900F0FFFAB0F1000800DC45
:1044000021E017AA414620460AF076FF071E00D099
:1044100019E017AA022120460CF092FB02280FD1C6
:104420000020287068702946681CE368626900F003
:1044300057F8012801D12F7804E04FF0FF3701E051
:104440004FF0FF3700BF1FB9012020620020207706
:1044500004F1A80001F028F837B9D4F8800018B1A9
:104460002046D4F88010884738461AB0BDE8F0815D
:104470001C2003082DE9FE4F04460D4616461F4634
:10448000DDF830A00020029001978046814601A807
:1044900009F0CEF98DF808000298C0F3C00028702A
:1044A0000298C0F3031020706946019800F048F9A3
:1044B0008146019908440190DDE9001000EB0108F4
:1044C0000198A8EB0000022800DA06E001A809F034
:1044D000B6F930804FF0010900BF4846BDE8FE8FB5
:1044E0002DE9FF4704460D461646994600200390E5
:1044F000029600278046009002A809F099F98DF8ED
:104500000C000398C0F30310022800D01FE001A99B
:10451000029800F015F98046029908440290DDE9FE
:10452000011047180298381A022800DA0FE002A892
:1045300009F07EF98DF800000098C0F3C0102070DB
:1045400002A809F075F928704FF0010800BF404635
:1045500004B0BDE8F0872DE9FF5F06460C4617461C
:104560009846DDE90FABDDF83890002003901198F4
:104570000290002500200190009002A809F058F94F
:104580008DF80C000398C0F30310032800D032E02C
:104590000398C0F3C00030700398C0F3410020605E
:1045A000039800F0010038706946029800F0C8F8DE
:1045B00001900299084402900099029845182A46F1
:1045C00002A9484609F048F910B10298281A00D506
:1045D00011E02068002804DD02A809F030F9A8F8ED
:1045E00000000298281ACBF800000298CAF80000D0
:1045F0000120019000BF019804B0BDE8F09F2DE9B3
:10460000FE4F05460E4614461F46DDE90C9B002072
:104610000290CDF804908046824601A809F008F97E
:104620008DF808000298C0F30310092800D02CE090
:104630006946019800F084F8824601990844019087
:10464000DDE9001000EB01080198A8EB000002284A
:1046500000DA1AE001A809F0F2F8288000202060B2
:104660000DE02068B04202DD4FF0FF3A0DE001A8F6
:1046700009F0DEF82268511C216047F822000198F9
:104680004045EED34FF0010A00BF5046BDE8FE8F13
:10469000FEB504464FF0FF36002504F1A80000F0F7
:1046A000FAFE684602F0A9F96846616802F09DF9D1
:1046B000A168206900F08FFA0546002D05DD6A46E5
:1046C000294620460AF018FE064600202077206280
:1046D0002046FFF754FE04F1A80000F0E5FE304646
:1046E000FEBD0146086A70472DE9F84305460C46B1
:1046F000012600270020206000BF4FF0FF38781C03
:104700000746042801DD00BF17E001216846A847DD
:104710008046B8F1010F00D00FE09DF8001001F0C5
:104720007F01206801FB06002060F6019DF8000073
:1047300000F080000028E0D100BF3846BDE8F883D3
:1047400070B504460D460348046029460248FFF749
:10475000CBFF70BD340000207972020830B50246EC
:10476000002300BF0846CD1701EB5565ED11A1EB05
:10477000C515ECB2CD1701EB5565E911002901DD36
:1047800044F0800418465B1C14540029EADC1846E7
:1047900030BD2DE9F04104460E460027B84620689A
:1047A00028B125682068FDF776F9074601E0A5687D
:1047B00067683046FDF76FF98046474508D13A46AD
:1047C00031462846FDF786F910B90120BDE8F08191
:1047D0000020FBE7401C802801DA401C0AE0B0F50D
:1047E000804F01DA801C05E00349884201DAC01CD1
:1047F00000E0001D70470000FFFF1F002DE9F041A1
:104800008EB004460E4615464FF0FF370020089044
:1048100009900A900896804604F1A80000F03BFE3B
:10482000206A18B93DA0FCF7B5FD69E00BA802F0BD
:10483000E4F80BA8616802F0D8F82878012802D0C3
:104840002878022803D1204606F0EEF9A880D5E9A1
:104850000201CDE9050108A807C802AB07C3A88873
:104860006978CDE900102B780022A168206900F05A
:10487000C4F98046B8F1000F03DC2CA0FCF78AFDD8
:104880003EE00BAA414620460AF036FD071E03D043
:104890002AA0FCF77FFD33E02878012816D10BAA67
:1048A000042120460CF04CF904280CD1E06800905B
:1048B00007AA06A905A86369FFF7DCFD012801D056
:1048C0004FF0FF371BE04FF0FF3718E02878022841
:1048D00015D10BAA072120460CF032F907280CD17C
:1048E000E068009007AA06A905A86369FFF7C2FD62
:1048F000012801D04FF0FF3701E04FF0FF3700BF34
:10490000781C10B92046FFF73AFD04F1A80000F02A
:10491000CBFD38460EB0BDE8F08100007075622016
:1049200072657475726E20310D0A00007075622018
:1049300072657475726E20320D0A00007075622007
:1049400072657475726E20330D0A00000EB505464F
:104950002C46684602F051F814E04FF4FA700BF060
:10496000A7FD04F1A80000F096FD4FF4FA71684627
:1049700002F03BF86946204602F02BFF04F1A80044
:1049800000F092FDE9E72DE9FC4704460E46154686
:104990001F46DDF828800020019081460094042EF7
:1049A00002DA6FF0010924E0019865F30710019025
:1049B000019867F3C3000190062D01D1012100E0A9
:1049C0000021019861F3420001909DF804106846AF
:1049D0000CF0E4F802210098FFF7C0FE00990844AB
:1049E0000090414668460CF0DFF80098A0EB0409FF
:1049F00000BF4846BDE8FC872DE9FE4305460E464C
:104A00001446029500200190009000274FF0FF38D7
:104A1000204600F0A5F807468146FFF7DBFEB042CE
:104A200002DD6FF001088FE000208DF8040001988E
:104A300020F0F000103001909DF8041002A80CF056
:104A4000ADF839460298FFF789FE029908440290B2
:104A5000207A042808D13EA102A80CF08BF804218A
:104A600002A80CF09BF807E03BA102A80CF082F82A
:104A7000032102A80CF092F800208DF80000A17E1E
:104A8000009861F341000090E07E08B1012100E050
:104A90000021009861F3820000900098C0F380002C
:104AA00058B194F83D10009861F3C400009094F858
:104AB0003C10009861F345100090206C08B9A06C80
:104AC00020B1009820F0800080300090E06C08B9A0
:104AD000606D20B1009820F04000403000909DF8BB
:104AE000001002A80CF05AF8218B02A80CF05CF818
:104AF00002A8D4E90423E1680CF06EF8E07E58B116
:104B000002A8D4E90A23616A0CF066F802A8D4E985
:104B10000D23216B0CF060F80098C0F3C01028B191
:104B200002A8D4E91123216C0CF056F80098C0F3C8
:104B3000801028B102A8D4E91423E16C0CF04CF8E1
:104B40000298A0EB050800BF4046BDE8FE830000C8
:104B50004D515454000000004D51497364700000E1
:104B600070B504460025207A032801D10C2503E006
:104B7000207A042800D10A25D4E90412E06800F064
:104B800009FA801C0544E07E68B1D4E90A12606A23
:104B900000F000FA861CD4E90D12206B00F0FAF93F
:104BA0003044801C0544206C08B9A06C30B1D4E9B5
:104BB0001112206C00F0EEF9801C0544E06C08B97D
:104BC000606D30B1D4E91412E06C00F0E3F9801CA0
:104BD0000544284670BD70B504460D460E22294690
:104BE000204600F0E2F870BD70B504460D460C2278
:104BF0002946204600F0D9F870BD2DE9F04F87B066
:104C000005460F4690461C46DDE915B6DDE9109ACB
:104C1000069500200590049003900096204612A966
:104C20000EC900F042F804900290FFF7D3FDB8429D
:104C300003DD6FF00100039033E0059820F0F000F1
:104C400030300590059868F3C3000590059864F32B
:104C500042000590059869F3000005909DF8141036
:104C600006A80BF09BFF04990698FFF777FD0699BD
:104C70000844069006A812A90EC90BF0ADFF002C3F
:104C800003DD514606A80BF08FFF324659460698C1
:104C9000FCF777FF0698304406900698401B039077
:104CA00000BF039807B0BDE8F08F7FB50546089EAA
:104CB000002401A807C800F06DF9801C30440444AA
:104CC000002D00DDA41C204604B070BD2DE9FF5F5F
:104CD00005460E4617469846DDE90E9A03950020D4
:104CE00002900190009000245146484600F046F89A
:104CF00083460190FFF76EFDB04202DDA01E0090DA
:104D000038E000208DF80800029820F0F000803094
:104D10000290029867F3C3000290029820F0060008
:104D2000801C02909DF8081003A80BF037FF019932
:104D30000398FFF713FD039908440390414603A825
:104D40000BF032FF00240FE004EB44000AEB800C70
:104D500003A89CE80E000BF03FFF109810F82410F9
:104D600003A80BF01BFF641C4C45EDDB0398401BB4
:104D7000009000BF009804B0BDE8F09F2DE9F0411D
:104D800005460E46022700240AE004EB440006EB29
:104D9000800393E8070000F0FDF8C01C0744641C82
:104DA000AC42F2DB3846BDE8F0812DE9FC41044617
:104DB0000D46164600200190471E0094022D01DA90
:104DC000871E15E000208DF80400019866F3071097
:104DD00001909DF8041068460BF0E0FE0021009859
:104DE000FFF7BCFC0099084400900098071B00BF27
:104DF0003846BDE8FC812DE9F04105460F461646D0
:104E00004FF0FF384446002419E005F1280050F81F
:104E1000340098B105F1280151F834003946FCF707
:104E2000A3FF58B93EB9002105F1280040F834101D
:104E300000EBC40041604FF0000802E0641C0A2C43
:104E4000E3DB00BFCEB108F1010068B9002408E03F
:104E500005F1280050F8340010B94FF0000802E0C6
:104E6000641C0A2CF4DB00BF0A2C06DA05F12800CA
:104E700040F8347000EBC40046604046BDE8F08165
:104E800010B504462246034904F1AC0001F03CFD94
:104E900010BD00004D4902082DE9FC4104460D46B5
:104EA00016461F4601A83B4632462946009020463A
:104EB00000F002F8BDE8FC812DE9FF478AB0044606
:104EC0000E461F46169D4FF0FF384FF00009002098
:104ED000049005900690049604F1A80000F0DBFA17
:104EE000206A00B948E007A801F087FD07A86168BB
:104EF00001F07BFD204605F097FE1FFA80FA0CA812
:104F000004A90122CDE90021029053460022A168A4
:104F10002069FFF7DBFE8146B9F1000F00DC2BE0D2
:104F200007AA494620460AF0E7F9B0F1000800D088
:104F300022E007AA092120460BF002FE092818D119
:104F4000002003902870E16860692B4603AACDE930
:104F50000001012102A8FFF752FB012808D128789F
:104F6000802805D03A4631462046FFF744FF804668
:104F700001E04FF0FF3800BF08F1010010B92046F2
:104F8000FFF7FDF904F1A80000F08EFA40460EB0DC
:104F9000BDE8F08737B50024009820B10098FCF7F1
:104FA0007AFD044600E0019C20463EBD00BFFEE7BE
:104FB00070B50446254604A0FCF7ECF96A200849C0
:104FC00081F8410070BD00004D717474436C6965D7
:104FD0006E74436F6E6E65637465640D0A00000045
:104FE000E906002070B50446254603A0FCF7D2F977
:104FF000052085F87C0070BD4D717474436C696543
:105000006E74446973636F6E6E65637465640D0AD4
:105010000000000010B5044605F082FC0648007848
:10502000012804D101220221104602F0E7F903A071
:10503000FCF7B0F910BD0000180000204D71747429
:10504000436C69656E74496E69746564210D0A006C
:10505000ADF6C81D642147A8FCF734FE24213EA804
:10506000FCF730FE2C2133A8FCF72CFE64211AA893
:10507000FCF728FE0024002500200BF065FC5822D8
:10508000B24904A8FCF7C2FD00BF0DF6B81000F04D
:105090006DFA40F21A4060A9CDE900010DF29C536F
:1050A00041F288320DF6B8110290A948FFF733F9A2
:1050B000A84BA94AA949A648FFF727F9A848A44937
:1050C000886733AA3EA947A801F0B2FEA54BA6A265
:1050D00064211AA8FCF780F940F25B721AA90DF658
:1050E000B81000F02DFA041E04D10220984981F86E
:1050F0007C0004E00320964981F87C0064E0A4A0D1
:10510000FCF748F94FF0FF324FF47A710846FEF78A
:105110005BFE14200BF0CCF98D48FFF7B1FE04467E
:10512000012803D021469EA0FCF734F900208DF819
:105130002B0003208DF8180047A807903EA8149074
:1051400033A817903C20ADF8280001208DF82A00E4
:1051500004A97F48FFF71BF9041E04D104207C49F1
:1051600081F87C0004E00520794981F87C002BE07F
:105170004FF0FF324FF4FA710846FEF725FE142077
:105180000BF096F98FA0FCF705F975497048FEF70A
:10519000A9FC041E04D106206D4981F87C0004E0BE
:1051A00007206B4981F87C000EE08BA0FCF7F2F839
:1051B0004FF0FF3200214FF47A70FEF705FE082011
:1051C000634981F87C0000BFBEE0C8200BF070F995
:1051D0005F4890F87C00092806D2DFE800F005114E
:1051E000223C627C95A7AF004FF0FF324FF47A71FA
:1051F0000020FEF7E9FD0120554981F87C00A2E07E
:105200007DA0FCF7C7F84FF0FF324FF47A714800E9
:10521000FEF7DAFD01F01EFA03204D4981F87C000B
:1052200091E079A0FCF7B6F84FF0FF324FF47A71B5
:105230000846FEF7C9FD04A94548FFF7A8F8041E73
:1052400004D10420424981F87C0003E00520404954
:1052500081F87C0077E070A0FCF79CF84FF0FF32FB
:105260004FF4FA618810FEF7AFFD681CC5B240F23A
:105270005B721AA90DF6B81000F062F9041E05D190
:105280000220334981F87C00002509E003203049E1
:1052900081F87C00032D03DB0025012081F87C00D0
:1052A00051E062A0FCF776F84FF0FF324FF4FA714C
:1052B0000846FEF789FD2A492548FEF713FC041E1F
:1052C00004D10620224981F87C0003E00720204910
:1052D00081F87C0037E05AA0FCF75CF81C48FFF727
:1052E000D7F9044624B90320194981F87C000AE063
:1052F0001748D0F88C00C1680DF6B8108847032015
:10530000134981F87C001EE052A0FCF743F856A038
:10531000FCF740F808200E4981F87C004FF0FF327E
:1053200000214FF47A70FEF74FFD0CE052A0FCF71D
:1053300031F80520064981F87C0004E04FF49670AE
:105340000BF0B6F800BF00BF3FE700007420030871
:105350003C0E002015500208E54F0208B14F02082C
:1053600091BD0208B705002025732E696F742D6169
:10537000732D6D7174742E636E2D7368616E676822
:1053800061692E616C6979756E63732E636F6D0050
:1053900054435020436F6E6E65637465640D0A005C
:1053A00052657475726E20636F64652066726F6DEE
:1053B000207374617274207461736B73206973203D
:1053C00025640A000A4D51545420436F6E6E656384
:1053D0007465640D0A0000000A4D51545420537541
:1053E0006273637269626520537563636573736684
:1053F000756C0D0A000000004D4F44554C455F4947
:105400004E49540D0A0000005443505F434F4E4E26
:1054100045435445440D0A005443505F44495343A7
:105420004F4E4E45435445440D0A00004D515454CF
:105430005F434F4E4E45435445440D0A0000000063
:105440004D5154545F444953434F4E4E4543544588
:10545000440D0A004D5154545F5355425F53554318
:10546000434553530D0A00004D5154545F52554E5D
:10547000494E470D0A0000004D5154545F535542A8
:105480005F4641494C0D0A0010B5044601200BF05F
:105490007BFC206010BD10B5044600235A1E19463F
:1054A00020680BF0BDFC10BD10B5044600231A4661
:1054B000194620680BF0F0FD10BD704770B5002153
:1054C00000230F22C47804B3154C246804F4E0646C
:1054D000C4F5E064210AC1F10403CA40447804FA27
:1054E00003F184781440214309010E4C0678A1553C
:1054F000047804F01F050124AC4005786D11AD005F
:1055000005F1E025C5F8004109E0047804F01F0525
:105510000124AC40044D0678761145F8264070BD54
:105520000CED00E000E400E080E100E0024901430E
:10553000024A1160704700000000FA050CED00E01F
:105540002DE9F04106460C4615464FF0FF372B4635
:1055500022460021304606F08FFDC00F071E00D006
:1055600000E000BF3846BDE8F08100000121016085
:1055700003494160034981600349C16070470000ED
:105580004B3102082DC202083F310208416002601F
:1055900070470EB501214FF0C05000F0D5F84FF420
:1055A0008030FDF7C3FC4FF48030019000208DF86F
:1055B000080010208DF8090001208DF80A0001A8CC
:1055C000FDF7CEFC01208DF8000000208DF80100D1
:1055D0008DF8020001208DF803006846FFF76EFF8A
:1055E000E02000F05DF8012000F04EF82420FDF7E7
:1055F000CFF94AF2A551884212D02420FDF7D6F9FE
:1056000000211420FDF7D2F900211820FDF7CEF972
:1056100000211C20FDF7CAF900212020FDF7C6F962
:10562000012000F037F80EBD10B54FF48030FDF7C3
:1056300083FCE8B10FA0FBF7ADFE012000F024F8D9
:10564000104841881420FDF7B1F90E4881881820D0
:10565000FDF7ACF90B48C1881C20FDF7A7F90948F4
:1056600001892020FDF7A2F94FF48030FDF75EFCA0
:1056700010BD00005057524F46462E2E2E2E2E2E75
:1056800000000000D81C002001490862704700009B
:1056900000000E42014908617047000000000E4200
:1056A00001460020034A106820F0E0000843106023
:1056B00070470000007000402DE9FC4105460C4693
:1056C00017461E46288804282CDD20680088009094
:1056D000BDF8000006F05CFF38802068801C206068
:1056E000206800880190BDF8040006F051FF30806A
:1056F0002068801C20602888001F28802888318826
:1057000088420CDB28883188401A2880D4F8008031
:1057100031882068084420604046BDE8FC810020B4
:105720002880FAE70020F8E729B1064A52690243C7
:10573000044B5A6104E0034A52698243014B5A61A7
:10574000704700000010024029B1064AD2690243A6
:10575000044BDA6104E0034AD2698243014BDA6107
:10576000704700000010024029B1064A1269024346
:10577000044B1A6104E0034A12698243014B1A6127
:10578000704700000010024029B1064A92690243A6
:10579000044B9A6104E0034A92698243014B9A6187
:1057A000704700000010024029B1064AD268024347
:1057B000044BDA6004E0034AD2688243014BDA60AA
:1057C0007047000000100240014908607047000067
:1057D0004004424230B500210022002400232D4D18
:1057E0006D6805F00C0121B1042905D0082923D1E9
:1057F00005E0294D056022E0274D05601FE0254D9D
:105800006D6805F47012234D6D6805F4803402252F
:1058100005EB92421CB9214D554305600BE01D4D2F
:105820006D6805F400351DB11C4D5543056002E05F
:10583000194D5543056002E0174D056000BF00BFDC
:10584000144D6D6805F0F0010909154D6B5C056894
:10585000DD4045600F4D6D6805F4E061090A104DAB
:105860006B5C4568DD4085600A4D6D6805F46051EC
:10587000C90A0B4D6B5C4568DD40C560054D6D6820
:1058800005F44041890B074D6B5CC568B5FBF3F52A
:10589000056130BD0010024000127A0000093D0091
:1058A0008E0000209E00002010B50146002200233B
:1058B00000204A11012A02D1094C236806E0022A7D
:1058C00002D1074C236A01E0054C636A01F01F0214
:1058D000012494401C400CB1012000E0002010BDC8
:1058E0000010024000210B4A11700A4A203A82F847
:1058F0002010012802D0042808D103E00121054A24
:10590000117004E00521034A117000E000BF00BFE0
:1059100070470000201002400149086070470000F5
:105920003C0442420249096A0143014A116270473C
:10593000001002400146002008604860704702469F
:1059400050681368984202D14FF0FF307047536897
:10595000D068C05C08705068401C50605068936804
:10596000984201D3002050600020EFE7014608680C
:105970004A68904203D308684A68801A704788686A
:105980004A68801A0A681044F8E7034613B109B15F
:10599000022A02D24FF0FF307047D9600020186011
:1059A00058609A6000BFF7E710B502460B461168D1
:1059B000491C9068884200D800215068884202D172
:1059C0004FF0FF3010BD1468D068035511600020FF
:1059D000F8E70000024909888143014A11807047B5
:1059E000042800400348008840F010000149088066
:1059F0007047000004280040034800884FF6EF710C
:105A000008400149088070470428004000210348ED
:105A10000188001F008841EA004070471C280040B0
:105A200001460020064A12880A40D0B2044A121FDA
:105A300012880A4012B108B1012000E0002070472E
:105A40000428004010B50120FFF7EAFF0520FFF70A
:105A5000C1FF00F0BBF810BD29B1064A128802430D
:105A6000044B1A8004E0034A12888243014B1A80D7
:105A700070470000002800403EB5002401214FF08F
:105A8000C050FFF761FE0120FFF7FEFD0420FCF788
:105A90007FFF45F6A521884258D0FCF770FF012012
:105AA000FFF720FF00BF09E04120FFF7FDFE00B136
:105AB00007E00A2002F008F8601C84B2B4F5FA7F0F
:105AC000F2DB00BF04EB8400410025A0FBF762FC81
:105AD000B4F5FA7F07DB4FF44070FFF723FF26A0F1
:105AE000FBF758FC06E04FF48070FFF71BFF25A082
:105AF000FBF750FC0120FFF70FFF00F071F800F0FA
:105B000065F8FFF76FFFB4F5FA7F04DA47F6FF7028
:105B100000F04CF803E04FF2234000F047F800F0AB
:105B200055F8082032211E220F23CDE900210290D2
:105B30001222022140F2E170FCF76EFFFFF75CFFDA
:105B400045F6A5210420FCF731FF01E000F048F8FC
:105B500001210846FFF780FF00F038F800203EBD25
:105B60004C5345206F7363696C6C6174696F6E3A56
:105B70002025646D730D0A007573696E67204853A4
:105B8000450D0A007573696E67204C53450D0A0078
:105B900000B50246FFF726FF100C03490880091DD7
:105BA0000A80FFF729FF00BD1828004000B5024613
:105BB000FFF718FFC2F3034003490880091D0A805C
:105BC000FFF71AFF00BD00000828004000BF03488F
:105BD000008800F020000028F9D070470428004019
:105BE000074800884FF6F77108400549088000BF54
:105BF0000348008800F008000028F9D07047000032
:105C00000428004008B501210420FFF7BDFD012153
:105C10000820FFF7B9FD0320ADF8000010208DF833
:105C2000030003208DF8020069461048FDF7B6FA1C
:105C30004FF48070ADF8000004208DF803000320BD
:105C40008DF8020069460948FDF7A8FA4FF4807004
:105C5000ADF8000004208DF8030003208DF8020049
:105C600069460348FDF79AFA08BD0000000C0140A0
:105C7000000801402DE9F04104460F46216D001D4A
:105C80000A0E62F30706090C61F30F26B0F84C10F8
:105C900090F84C00090A61F3174660F31F66E06C48
:105CA00094F85010000E60F30708E06C0025000C1B
:105CB00060F30F28B4F84C008022000A60F3174804
:105CC00094F84C0060F31F68E06CC00840EA417033
:105CD00000F03F01383975F1000100F03F01214427
:105CE0000A7327D200F03F02C2F13703002B1ADDFE
:105CF0000021C0F1370010F0010002D011194D73DE
:105D0000012183420FDD00BF02EB010CA444491CBA
:105D10008CF80D5002EB010CA444491C801C8CF83B
:105D20000D508342F0DCC4E9116804F10C0104F168
:105D300054003DE03F2181431FD00021C0F13F02CC
:105D400012F0010204D000F03F0121444D73012103
:105D500000F03F00C0F13F0393420EDD00EB010C69
:105D6000A444491C8CF80D5000EB010CA444491CC0
:105D7000921C8CF80D509342F0DC04F10C0104F1FC
:105D8000540000F03BF8E56025616561A561E561BF
:105D900025626562A562E56225636563A563C4F853
:105DA0004880E563C4E9105604F10C0104F1540085
:105DB00000F024F85FF0000004EB8001496D09BA9F
:105DC00047F82010401C0528F6DBE5602561656179
:105DD000A561E56125626562A562E562256365638B
:105DE000A563E56325646564A5646565A565E565EA
:105DF00025666566E5642565BDE8F0812DE9F00757
:105E0000D1B0002250921746D0E90223D0E90045D4
:105E1000D0F810C06E4600BF51F8278098FA88F875
:105E200046F827807F1C102FF6DB102106EB810738
:105E300057F80C8C57F8209C88EA090857F8389CCA
:105E400057F8407C89EA070788EA07074FEAF7779F
:105E500046F82170491C5029E8DBC249002700BFE1
:105E600082EA030909EA050989EA0309CC4456F8DC
:105E700027804FEAB50508EBF46885EA0209C444B7
:105E800009EA040989EA02098C447F1C4B4456F84C
:105E900027804FEAB40408EBFC6884EA0509434410
:105EA00009EA0C0989EA05090B447F1C4A4456F8A3
:105EB00027804FEABC0C08EBF3688CEA04094244E3
:105EC00009EA030989EA04090A447F1C4D4456F88B
:105ED00027807F1C08EBF26845444FEAB30383EA4E
:105EE0000C0956F8278009EA02090D4489EA0C09D1
:105EF00008EBF5684C4444447F1C0C444FEAB20262
:105F0000142FADDB282FB8BF974947DA85EA02097D
:105F100089EA0309CC4456F827804FEAB50508EB17
:105F2000F468C44484EA05098C447F1C89EA0209A8
:105F30004B4456F827804FEAB40408EBFC6843440E
:105F40008CEA04090B447F1C89EA05094A4456F887
:105F500027804FEABC0C08EBF368424483EA0C0943
:105F60000A447F1C89EA04094D4456F827807F1CA7
:105F700008EBF26845444FEAB30356F8278082EAFB
:105F800003090D4489EA0C0908EBF5684C444444C4
:105F90007F1C0C444FEAB202282FB7DB3C2FB8BF5E
:105FA00072495BDA45EA020A05EA02090AEA030ACB
:105FB00049EA0A09CC4456F827804FEAB50508EBB0
:105FC000F468C44444EA050A04EA05090AEA020A34
:105FD0008C4449EA0A097F1C4B4456F827804FEA53
:105FE000B40408EBFC6843444CEA040A0CEA0409D4
:105FF0000AEA050A0B4449EA0A097F1C4A4456F892
:1060000027804FEABC0C08EBF368424443EA0C0AD1
:1060100003EA0C090AEA040A0A4449EA0A097F1C4D
:106020004D4456F827804FEAB30308EBF268454425
:106030007F1C42EA030A56F8278002EA03090AEAAB
:106040000C0A0D4449EA0A0908EBF5684C4444443B
:106050007F1C0C444FEAB2023C2FA3DB502FB8BF89
:10606000434947DA85EA020989EA0309CC4456F82C
:1060700027804FEAB50508EBF468C44484EA0509B3
:106080008C447F1C89EA02094B4456F827804FEA6A
:10609000B40408EBFC6843448CEA04090B447F1CFD
:1060A00089EA05094A4456F827804FEABC0C08EBF8
:1060B000F368424483EA0C090A447F1C89EA040914
:1060C0004D4456F827807F1C08EBF26845444FEAA0
:1060D000B30356F8278082EA03090D4489EA0C09C4
:1060E00008EBF5684C4444447F1C0C444FEAB20270
:1060F000502FB7DB1F4901268E608E680E685096C0
:10610000761C04D1509E0E6009685091B1B141686F
:1061100081EA45110160856881EA441185EA4212ED
:106120004260C26882EA43128260026982EA4C12CB
:10613000C0E9032151B0BDE8F00770470168214470
:106140000160416829444160816811448160C168EF
:106150001944C16001696144016151B0BDE8F007B3
:10616000704700009979825AA1EBD96EDCBC1B8F75
:10617000D6C162CA00300240002818BF002901D0F1
:10618000002A02DA40F6A3707047037913F0040F77
:106190001CBF40F6A17070472DE9F0410446C06C69
:1061A0000F46154600EBC501C0F3C503E164206D41
:1061B000B1EBC50F3CBF401C206500EB557020655E
:1061C00058193F2898BF00262BD9C3F14006E01884
:1061D0000C3032463946FBF7D4FC04F10C0104F1D3
:1061E0005400FFF70BFE06F13F00A84218D2B91980
:1061F00011F0030F04D004F15400FFF7FFFD0AE093
:10620000402204F10C00FBF7BCFC04F10C0104F18A
:106210005400FFF7F3FD304640367F30A842E6D306
:106220000023E018AA1BB9190C30FBF7AAFC0020C8
:10623000BDE8F081002819BF0029002A40F6A370AC
:1062400070472DE9F0410446806886B0401E9046B4
:106250000F46142822BF40F6A27006B0BDE8F081B8
:106260002079694640F0040020712046FFF702FDC6
:10627000A2686946501E002817DD481E7B1E12F0DA
:10628000010F03D110F8012F03F8012FA268457800
:10629000521E5FEA620C08D010F8026F5D704578FC
:1062A00003F8026FBCF1010CF6D1A068401E002873
:1062B000A4BF095C3954A068C8F8000006B00020EB
:1062C000BDE8F0812DE9F0419EB005460E46174627
:1062D000984600241020039000208DF8080001A8A3
:1062E000FDF758FE044664B93246294601A8FDF779
:1062F000F3FD04462CB94246394601A8FDF701FEDC
:10630000044620461EB0BDE8F0812DE9F047B2B04A
:1063100005460E4617469846DDE93A9A00241420B1
:10632000029000208DF804000397CDF81080684695
:10633000FDF790F9044664B9324629466846FDF7F0
:1063400031F904462CB9524649466846FDF732F900
:106350000446204632B0BDE8F0870000F8B5054697
:106360000E46002404200090FCF7CAFE3420FCF7FF
:1063700041FE00BF15E06119C90201F10060FCF7A0
:106380003FFE009029190CA0FBF704F89DF80000CF
:10639000042805D011A0FAF7FDFF4FF0FF30F8BD3B
:1063A000641CB44203D29DF800000428E3D0FCF73B
:1063B00067FE0020F3E70000464C4153485F4572FA
:1063C00061736550616765204572617365436F75E0
:1063D0006E7465723A2025640D0A00000D0A464C61
:1063E0004153485F4552524F522045726173650DCB
:1063F0000A00000001460868704700002DE9F743D5
:1064000086B004460D46002679E02878252803D07A
:10641000287804F8010B71E06D1C2878692836D0C3
:1064200004DC66281CD0682865D13CE06C2802D0CA
:10643000732860D14BE00898C01D20F0070001468A
:10644000089000684968089A08320892CDE902016C
:1064500002AF3868206078686060083608344BE026
:106460000898C01D20F007000890D0E90021DDF851
:1064700020C00CF1080C1046CDF820C00BF0B4FA87
:10648000019001AF38682060361D241D34E0089863
:10649000006804900898001D089004AF38682060D8
:1064A000361D241D28E0089830F8041B0FFA81F8E7
:1064B00008901648A0F80080404604F02FFC009099
:1064C0006F46BF1C38882080B61CA41C14E00898B6
:1064D00050F8049B08900D48B0F90020494620462A
:1064E000FBF74FFB0948B0F9000006440748B0F934
:1064F0000000044400E000BF00BF00BF6D1C28780E
:10650000002882D1304609B0BDE8F0838C0000201D
:106510000FB438B5044606A800902046009A0599A5
:10652000FFF76CFF054600200090284638BC5DF858
:1065300014FB10B500F002F810BD00000CB50020EF
:10654000019000903348006840F480303149086081
:1065500000BF3048006800F4003000900198401CF3
:106560000190009818B90198B0F5A06FF1D12948B1
:10657000006800F4003010B10120009001E000201C
:1065800000900098012843D12348006840F0100093
:10659000214908600846006820F0030008600846AA
:1065A000006840F0020008601A48406819494860D5
:1065B0000846406848600846406840F4806048608B
:1065C0000846406820F47C1048600846406840F463
:1065D000E81048600846006840F08070086000BF1E
:1065E0000C48006800F000700028F9D009484068A5
:1065F00020F00300074948600846406840F0020068
:10660000486000BF0348406800F00C000828F9D13A
:106610000CBD00000010024000200240042808D1F8
:106620004FF0E021096941F004014FF0E0221161CF
:1066300007E04FF0E021096921F004014FF0E0226A
:106640001161704710B50AF011FF012801D00AF05E
:1066500081FB10BD01480249086070470400FA053B
:106660000CED00E010B51348006840F0010011493E
:10667000086008464068104908400E4948600846CE
:1066800000680E4908400B4908600846006820F47D
:10669000802008600846406820F4FE0048604FF4FF
:1066A0001F008860FFF745FF4FF000600449086055
:1066B00010BD0000001002400000FFF8FFFFF6FED2
:1066C00008ED00E010B50320094981F87C000020A6
:1066D0000862084690F87C1006A0FAF75BFE0448B2
:1066E000016A08A0FAF756FE0BA0FAF753FE10BD98
:1066F0003C0E0020636F6E6E53746174653A202502
:10670000640D0A006973636F6E6E65637465643A45
:106710002025640D0A0000005443502031204469B4
:1067200073636F6E6E65637465642E2E2E0D0A00A2
:1067300010B50121880700F078F838B101218807E9
:1067400000F064F800F03BF905F0F2FD10BD000028
:1067500010B50121074800F068F8012804D1064867
:106760000068401C044908600121024800F04EF80E
:1067700010BD0000000400403800002010B50121C9
:10678000094800F052F8012808D1052000F076FEF3
:106790000520FCF787FA0520FCF7A6FA012102483C
:1067A00000F034F810BD0000000C00407FB5054635
:1067B0000C4601210820FEF7C7FFADF80850ADF8E0
:1067C00004400020ADF80A00ADF8060001A90E480B
:1067D00000F048F8012211460B4800F037F832204B
:1067E0008DF8000003208DF8010000208DF80200D4
:1067F00001208DF803006846FEF760FE0121024883
:1068000000F007F87FBD0000000C0040CA43028280
:10681000704721B1028842F00102028004E0028840
:106820004FF6FE731A400280704730B502460020D2
:1068300000230024158A05EA0103958905EA01046D
:1068400013B10CB1012000E0002030BD1AB18389E2
:106850000B43838102E083898B438381704781846A
:1068600070470000002202881D4B98420ED01D4B3D
:1068700098420BD0B0F1804F08D01B4B984205D006
:106880001A4B984202D01A4B984204D14FF68F739C
:106890001A404B881A43174B984207D0164B984220
:1068A00004D04FF6FF431A40CB881A4302808B88EE
:1068B00083850B8803850A4B98420BD0094B98427D
:1068C00008D00E4B984205D00D4B984202D00D4B8C
:1068D000984201D10B7A038601238382704700001E
:1068E000002C01400034014000040040000800403A
:1068F000000C004000100040001400400040014027
:1069000000440140004801402DE9FC4704460D4683
:10691000164600274FF4A078002009F08FFB81462F
:106920003346424604A12846CDE900940AF06EFDA4
:1069300007463846BDE8FC874D5154545461736B8B
:10694000000000007FB505460C4601210846FEF711
:10695000FBFEADF80850ADF804400020ADF80A0089
:10696000ADF8060001A94FF08040FFF77BFF1C2027
:106970008DF8000002208DF8010000208DF8020043
:1069800001208DF803006846FEF798FD0121880775
:10699000FFF73CFF7FBD10B500214FF08040FFF7AF
:1069A0005EFF01210846FEF7CFFE01221146900747
:1069B000FFF74CFF01218807FFF72BFF10BD10B533
:1069C00000214FF08040FFF724FF00210120FEF757
:1069D000BBFE10BD70B505460C464FF47A7004FB43
:1069E00000F1284600F001F870BD70B504460D4670
:1069F0002560201D09F028FF70BD00210160416065
:106A00008160704710B504462146201D0AF0AEFC97
:106A1000012800D110BD0020FCE710B50446214636
:106A2000201D0AF0A3FC206810BD000010B504462C
:106A30004021074800F01AF900BF4021044800F047
:106A400015F90028F9D02146014800F0DCF910BD05
:106A50000038014010B540F225510E4800F013F9FE
:106A600060B10C4800F0CAF9C4B221460A48FEF7EA
:106A70009BFF2046FFF7DAFFFFF78DFF4FF45A71B7
:106A8000044800F000F920B14FF45A71014800F0B9
:106A90007AF810BD004400403C1D002010B50446AB
:106AA00003E014F8010B00F005F820780028F8D175
:106AB00010BD000010B504464021074800F0D6F88C
:106AC00000BF4021044800F0D1F80028F9D0214649
:106AD000014800F098F910BD0044004010B50024B2
