:020000040802F0
:10100000F0FC0020B5120208376D020805500208F6
:10101000296802082D41020893860208000000009A
:101020000000000000000000000000001D12020887
:101030008D4602080000000061120208C17E02080D
:10104000CF120208A56E0208CF120208C172020870
:10105000CF120208CF120208CF120208CF120208E4
:10106000CF120208CF120208CF120208CF120208D4
:10107000CF120208CF120208CF120208CF120208C4
:10108000CF120208CF120208CF120208CF120208B4
:10109000CF120208CF120208CF120208CF120208A4
:1010A000CF120208CF120208CF120208CF12020894
:1010B000AD7F0208CD7F0208CF120208CF120208CE
:1010C000CF120208CF120208CF120208CF12020874
:1010D000CF120208CF120208D182020859830208F7
:1010E000CF120208CF120208CF120208CF12020854
:1010F000CF120208CF120208CF120208CF12020844
:10110000CF120208CF120208F97F0208CF1202089C
:10111000CF120208CF120208CF120208CF12020823
:10112000CF120208CF120208CF120208CF12020813
:1011300000F002F800F062F80AA090E8000C824487
:101140008344AAF10107DA4501D100F057F8AFF264
:10115000090EBAE80F0013F0010F18BFFB1A43F095
:1011600001031847004F0100204F0100103A24BF2F
:1011700078C878C1FAD8520724BF30C830C144BFFC
:1011800004680C607047000000230024002500263E
:10119000103A28BF78C1FBD8520728BF30C148BFDA
:1011A0000B607047662912F0E48703681B0A28BFAA
:1011B00041F08001642900F08381782900F0FA81F0
:1011C000E42900F0B981732901F0318200207047D1
:1011D0001FB59DE8030000F007FF01F017FB0400B6
:1011E0000020002112F0D4FB401C60600020002190
:1011F00012F0B8FBE0601FBD10B510BD01F0F1FDAD
:101200001146FFF7E5FF0CF027F802F061F803B490
:10121000FFF7F2FF03BC07F0BFFA0000224B19688A
:101220000868B0E8F00F80F30988BFF36F8F4FF0C4
:10123000000080F311884EF00D0E70470000000092
:1012400006480068006880F3088862B661B6BFF39C
:101250004F8FBFF36F8F00DF00BF00BF08ED00E0CE
:10126000EFF30980BFF36F8F0F4B1A6820E9F00F7F
:10127000106008B54FF0300080F31188BFF34F8F36
:10128000BFF36F8F11F0BCFB4FF0000080F31188AB
:10129000BDE8084019680868B0E8F00F80F30988D5
:1012A000BFF36F8F704700BFA8000020EFF30580E9
:1012B000704700000948804709480047FEE7FEE7FD
:1012C000FEE7FEE7FEE7FEE7FEE7FEE7FEE7FEE7F6
:1012D00004480549054A064B70470000E17E0208B4
:1012E00031110208F0C40020F0FC0020F0F40020CE
:1012F000F0F40020704770B5064600F055FE056812
:1013000006F10B0020F00704B4429CBF002070BD22
:101310002B466A68BAB11068A04210D304F10801E4
:1013200088423CBF5068586007D35168101941602B
:101330001168091B016058601460101D70BD1346D0
:101340005268002AE7D12146284600F039FE0028DD
:10135000DED170BD70B50446051F00F025FE0068A3
:10136000002C14BF446870BD002C18BFAC423CBFB9
:1013700020466468F8D301680A18AA4218BF45607D
:1013800003D12A6805461144016028684119A14229
:101390001CBF6C6070BD616869602168084428608A
:1013A00070BD00000FB4044910B503AA029801F003
:1013B00043F910BC5DF814FB880000200FB41CB585
:1013C000084B06AA7B4469460090059801F0FDF899
:1013D00004460020694601F00BF920461CBC5DF86C
:1013E00014FB0000291200000FB47CB50C0009AA00
:1013F000009001D02044401E084B7B446946019078
:10140000089801F0E2F805461CB10020694601F099
:10141000EFF828467CBC5DF814FB0000FD110000CD
:1014200070B5044685690068C10601D5302600E024
:101430002026C00707D070BDD4E90121304690476F
:10144000206A401C20626D1EF6D570BD70B5044642
:1014500085690078C00707D170BDD4E9012120203B
:101460009047206A401C20626D1EF6D570BD70B595
:101470000C460546012A05D02878800600D5EA6981
:10148000002302E0012305E05B1C934202D2E05CF2
:101490000028F9D1A869E618C01AA861286A18447A
:1014A00028622846FFF7BCFF04E0D5E9012114F8C3
:1014B000010B9047B442F8D32846FFF7C7FF70BD31
:1014C0002DE9F0410646002410687529314616A51D
:1014D00010D0AFF30080002802DA404213A507E0E5
:1014E00031688A0701D512A502E0490704D511A584
:1014F000012401E0AFF3008000210A2206F1240755
:1015000009E0B0FBF2FCB0FBF2F302FB1C00303050
:1015100078541846491C0028F3D123462A46304601
:10152000BDE8F04100F0E6BD000000002D00000025
:101530002B000000200000002DE9F0418046D21D64
:1015400022F007020025D2E90002F52915A614D0E1
:10155000011E72F1000106DA0023D0EB030063EBF9
:10156000020211A608E0D8F800108B0701D50FA6DB
:1015700002E0490701D50EA601251146002408F115
:10158000240704E000F066FD30323A55641C50EA4E
:101590000102F7D12B46324621464046BDE8F041D4
:1015A00000F0A8BD000000002D0000002B0000008E
:1015B0002000000070B504460D4621461068AFF3C8
:1015C00000802188090502D50F4A7A4402E00E4ABC
:1015D0007A440E32002104F1240305E000F00F06E6
:1015E0000009965D5E54491C0028F7D1207800233D
:1015F000000704D5702D02D009B102231132204614
:10160000BDE8704000F076BD764901002DE9F05F3D
:10161000894604464FF0000ADFF874B1FB44C0F875
:1016200020A02046E1688847002874D0252806D0ED
:10163000D4E901219047206A401C2062F1E700268E
:101640005F462046E16888472028054607DB312DA4
:1016500005D2781910F8200C08B10643F1E7B0075D
:1016600001D526F00406C4F81CA00027C4F818A071
:101670002A2D09D0284607F088F838B304EB8708EC
:10168000303DC8F8185019E059F8041B204604EB07
:1016900087029161E1688847012F054618D1E0690A
:1016A000002820DA26F020061DE0D8F8180000EB0C
:1016B000800005EB40003038C8F818002046E1688B
:1016C0008847054607F061F80028EED1012F0AD0BF
:1016D0002E2D08D12046E16888477F1C0546022F41
:1016E00046F02006C4DBA069002803DA404246F039
:1016F0000106A061F00701D026F010066C2D0BD07A
:10170000682D09D04C2D39D06A2D35D0742D35D0A7
:101710007A2D33D016E038E0E1682F46204688471E
:10172000B842054609D16C2F26D04FF48060E1689D
:10173000064320468847054604E06C2F1AD04FF434
:10174000807006430DB3A5F14100192802D8203559
:1017500046F400664A462946204626604E46FFF774
:1017600021FD80B101280BD0F61D26F0070000F105
:10177000080956E74020E4E78020D8E70020D6E7B4
:1017800006F104094DE7284652E7206ABDE8F09FBC
:101790004C4901000FB400B58DB010A9099000911B
:1017A0000B904FF0FF300A9000200C9006487844D0
:1017B0000690064878446A4607900F9909A800F0F9
:1017C00061FF0DB05DF814FBF30E00000B0F00007D
:1017D0002DE9FF5F1D464FF0FF3B91464FF000089B
:1017E0005F46D5E90146A96901987F1C8847296AA7
:1017F000824688470028F6D1BAF1FF3F0CD0002E70
:1018000024F4C06419DD600614D5BAF12B0F09D099
:10181000BAF12D0F0ED103E0584604B0BDE8F09F99
:1018200044F48064A96901987F1C8847761E82462B
:10183000002E02DDBAF1300F03D0B9F1000F26D02F
:1018400032E0A969761E01987F1C44F40074884731
:10185000002E824605DDBAF1780F06D0BAF1580F96
:1018600003D0B9F1000F10D01EE0B9F1000F02D083
:10187000B9F1100F18D1A969761E01987F1C24F4C4
:10188000007488478246102002E0082000E00A2009
:10189000814609E0A96908FB0908761E01987F1CAA
:1018A00044F4007488478246002E05DD49465046C0
:1018B00000F0D4FE0028EDDAE96901988847A00518
:1018C00002D46FF00100A8E7E00725D1600613D528
:1018D000600502D5C8F1000000E0404629680A1DF5
:1018E0002A600968220501D5087015E0220701D594
:1018F000088011E008600FE02868011D2960006879
:10190000210502D580F8008006E0210702D5A0F865
:10191000008001E0C0F8008038467EE72DE9FF5FD7
:101920004FF000089946144646469169D2E901A74E
:10193000DDF838B001988847054659EA0B0005D014
:1019400009E0A1690198761C88470546216A284666
:1019500088470028F5D1681C03D05FEACA7005D01B
:1019600015E04FF0FF3004B0BDE8F09F2068011D86
:101970002160D0F800800AE05FEACA7001D108F85F
:10198000015BA169761C01987F1E88470546002FE0
:101990001ADD681C18D0B9F1000F0DD0E81705EB5F
:1019A000D060421120F01F0059F822102A1A01209D
:1019B00090400142E0D107E0BBF1000FDCD12846A6
:1019C000216A88470028D7D0E16901988847BBF190
:1019D000000F07D1002E05DD5FEACA7002D1002199
:1019E00088F80010A068B84203DDBBF1000F03D0F7
:1019F00017B16FF00100B6E73046B4E770B50646A0
:101A000000F0D6FA0468054630460A22002100F0AC
:101A1000B9FE2C6070BD401ECAB210F8011F8A4288
:101A200002D00029F9D10020704730B505460B4699
:101A30002A4613F8014B12F8010B08B1A042F8D066
:101A40001CB1002802D06D1CF1E7284630BD40EAE9
:101A5000010310B59B070FD1042A0DD310C808C984
:101A6000121F9C42F8D020BA19BA884201D901202D
:101A700010BD4FF0FF3010BD1AB1D30703D0521C78
:101A800007E0002010BD10F8013B11F8014B1B1BB3
:101A900007D110F8013B11F8014B1B1B01D1921E1D
:101AA000F1D1184610BD10B5431C02E010F8011B1F
:101AB00071B18107FAD14FF0013202C88C1A8C4300
:101AC00014EAC211F9D0C01A0A0603D0C01E10BD14
:101AD000C01A10BD0A0401D0801E10BD0902FCD03E
:101AE000401E10BD40EA010370B59B072ED14FF098
:101AF0000136042A2AD308C810C99D1B9D43121F12
:101B000015EAC61517D0D8B2E1B2401A50EA0561FD
:101B100010D198B2A1B2401A50EA05410AD123F07F
:101B20007F4024F07F41401A50EA052102D1180E6F
:101B3000A0EB146070BDA342DBD018BA21BA884272
:101B400001D9012070BD4FF0FF3070BD0AB90020EF
:101B500070BD10F8013B11F8014B63B1A3420AD1EB
:101B6000521E08D010F8013B11F8014B1BB1A342E3
:101B700001D1521EEDD1181B70BD421E12F8013F5B
:101B8000002BFBD111F8013B002B02F8013BF9D1EE
:101B90007047032A40F2308010F0030C00F01580EB
:101BA00011F8013BBCF1020F624498BF11F801CB60
:101BB00000F8013B38BF11F8013BA2F1040298BFC5
:101BC00000F801CB38BF00F8013B11F0030300F02F
:101BD0002580083AC0F0088051F8043B083A51F8D3
:101BE00004CBA0E80810F5E7121D5CBF51F8043BD8
:101BF00040F8043BAFF30080D20724BF11F8013B4B
:101C000011F801CB48BF11F8012B24BF00F8013BAC
:101C100000F801CB48BF00F8012B704710B5203AFF
:101C2000C0F00B80B1E81850203AA0E81850B1E895
:101C30001850A0E81850BFF4F5AF5FEA027C24BF4B
:101C4000B1E81850A0E8185044BF18C918C0BDE842
:101C500010405FEA827C24BF51F8043B40F8043B0B
:101C600008BF7047D20728BF31F8023B48BF11F8C0
:101C7000012B28BF20F8023B48BF00F8012B70471A
:101C800002F0FF0343EA032242EA024200F002B8F4
:101C90004FF000020429C0F0128010F0030C00F095
:101CA0001B80CCF1040CBCF1020F18BF00F8012B13
:101CB000A8BF20F8022BA1EB0C0100F00DB85FEAE1
:101CC000C17C24BF00F8012B00F8012B48BF00F8AD
:101CD000012B70474FF0000200B51346944696461C
:101CE000203922BFA0E80C50A0E80C50B1F120012F
:101CF000BFF4F7AF090728BFA0E80C5048BF0CC0DD
:101D00005DF804EB890028BF40F8042B08BF70473A
:101D100048BF20F8022B11F0804F18BF00F8012BAC
:101D2000704710B5044610F0030F08BF11F0030F01
:101D300040F015804FF0013E121FC0F20E8051F8A6
:101D4000043BA3EB0E0C2CEA030C1CEACE1C08BFD0
:101D500040F8043BF0D0A1F1040102F10402521E4C
:101D600008DB11F8013B002B00F8013BF7D11146CD
:101D7000FFF78EFF204610BD4FF0013C50F8042BBA
:101D800051F8043B9A4221D1A2EB0C03934313EA8E
:101D9000CC1317D150F8042B51F8043B9A4215D1BB
:101DA000A2EB0C03934313EACC130BD150F8042B92
:101DB00051F8043B9A4209D1A2EB0C03934313EA76
:101DC000CC13DBD04FF00000704700BFD01A01BA2F
:101DD000B1FA81F101F0180122FA01F0CB40C1F112
:101DE0002001DBB2C0B2C01A2CFA01F3D11A914320
:101DF00011EAC311E6D1704710B503681C1404EB57
:101E000021449BB289B2194494FBF2F302FB1343C1
:101E100094FBF2F401EB034393FBF2F102FB11316B
:101E200093FBF2F301E05B1E11440029FBDB016030
:101E300003EB044010BD2DE9F04704464FF0FF3A94
:101E400086B00068029060680390A0680490E06823
:101E5000019020690090656905F18040B0F1004F64
:101E60007DD83C22002102A8FFF7C6FF3C22014694
:101E700003A8FFF7C1FF1822014604A8FFF7BCFF23
:101E8000411E40F2B55201A8FFF7B6FF0C220646EC
:101E900068460021FFF7B0FF00EB860028443E4D66
:101EA00000267D440FE09A1A491CCDE90012022950
:101EB00002D00C2907D104E0810704D0521C019202
:101EC00001E0401C00960099019B6A5C9A42EADDA1
:101ED000012906D11C2B04D1810702D00221CDE9B2
:101EE0000016A0F146018B2940D20199009B0022E7
:101EF0000F4602E0AE5C521C31449A42FADB012BE1
:101F000002DD820700D0491E40F2B55540F26D1641
:101F1000C21700EB927292106A4300F0030505FBB2
:101F2000062285070A4400D1521E049D02EB420698
:101F3000DDF80C80A94605EBC605184EC5EB051566
:101F4000DDF808C008EB850535442E14ADB2C6EBAC
:101F50000616C5EB0515B6000CEB850500E005E09F
:101F600006EB154666F31F45360C03D0504606B007
:101F7000BDE8F087C4E904307F1C0720521CC4E987
:101F8000029792FBF0F3E4E806C800FB132084E814
:101F900003042846EBE70000D7400100A039CEFD3E
:101FA00070477047704770470048704794C40020DE
:101FB000004870478CC400207047704770477047D6
:101FC00038B504460A4600206946AFF30080002871
:101FD00008BF38BD02460099204600F01BFC0120D6
:101FE00038BD012000F0F6BEF8B5AFF3008005461D
:101FF00000200C46102000BF0646A819A0420DD9AB
:10200000324669460020AFF30080070008BF00F0A9
:10201000E1FE0098A04218BF0546C419FFF7C4FFAF
:1020200005600746F01D20F007004619284600F01D
:102030000AF8B44208BFF8BDA21B31463868BDE8B3
:10204000F84000F0E7BB00210160C0E901107047D3
:102050001020704730B5B0F10A024FEA900E71F1CE
:1020600000034EEA817EB0EB0E0061EB91014FEA76
:10207000101E4EEA017E10EB0E0041EB11114FEAEB
:10208000102E4EEA016E10EB0E0041EB11214FEACB
:10209000104E4EEA014E10EB0E0041EB114140187C
:1020A00041F100014FEAD00040EA41704FEAD1010E
:1020B00010EB80054FEA810444EA907444EB01047C
:1020C0006D1944EB0404521BA3414FF0000348BFB9
:1020D0000A3200D530BD401C41F1000130BD10B5C1
:1020E000FFF766FF006810BD10B50446FFF760FFFC
:1020F000046010BD2DE9F0470D469946924604460E
:1021000000F124080168880604D5E06921F0100177
:10211000216000E00120A84201DD471B00E000270C
:10212000A1697A1902EB0900081AA0612078C0069B
:1021300002D42046FFF774F9002608E0D4E9012113
:102140001AF806009047206A401C761C20624E4513
:10215000F4DB2078C0060AD52046FFF761F906E0D7
:10216000D4E9012130209047206A401C2062381EAB
:10217000A7F10107F4DC07E0D4E9012118F8050014
:102180009047206A401C2062281EA5F10105F3DC5F
:102190002046FFF75BF92078000602D50220BDE853
:1021A000F0870120FBE770472DE9FF4F0C461E46E4
:1021B0004FF0FF378BB0D2E90001DDF860800A9064
:1021C0008A46C1F30A5505B93D46002108464FF03D
:1021D0000000BAF1000F00F4400005DA00EB8000C7
:1021E0004FF4400101EA50004FEA9059B9F1010F54
:1021F00000DDB9460A9850EA4A000ED044F6105065
:10220000A5F2FF3545432F14B8F1000F1ED07542DB
:10221000291E1EDDC9F100021CE0B8F1010F4FF0CC
:10222000000001D0302103E0F24305E02154401CBE
:10223000B042FBDB30460022002121540B99C1F84B
:102240000880C1E900200FB0BDE8F08FBD1B6D1CF8
:10225000DEE74A4600DA694206A800F049FD06AB0F
:1022600093E8070003AB83E8070050460A9901F0A2
:10227000B6FA8DE80700A0F500501F3800900398CB
:10228000002D09DD42F21F014A46084403A90390CC
:10229000684601F040FD08E0A0F500504A461F38AE
:1022A00003A90390684601F05EFD8DE80700000475
:1022B000000C03D04FF0FF30410800E01046B8F1A9
:1022C000000F03D00022009215461EE0751E05D4B3
:1022D000FFF7C0FE303262556D1EF9D5B3460122BC
:1022E000084302D000227F1C04E02078302801D16E
:1022F00000227F1E002A099786D01DE0112D07DAE3
:10230000FFF7A8FE303262556D1C50EA0102F5D18C
:10231000084302D00098C8B10EE00021681E05E015
:10232000235C625C63542254401E491C8142F7DBEB
:10233000AB46A81B401E0990002004F80B000B9828
:10234000099AC0F80880C0E9002B7CE711264FF0FD
:10235000000859E72DE9F04F88460446D21D22F0C7
:10236000070191B0D1E90001CDE90A0106F093F926
:1023700002460B98C00F01D02D2007E0206881078E
:1023800001D52B2002E0202101EAC000032A099098
:1023900001D0072A05DB03464146204600F05EFADD
:1023A0000BE12078800601D5E06900E00620B8F155
:1023B000650F814606D0B8F1660F18D0B8F1670FE7
:1023C00070D131E00020B9F1110F009001DB112331
:1023D00001E009F101030AAA01A90CA8FFF7E4FE34
:1023E000DDE90C70002609F10105834647E0012074
:1023F0004B4600904FF000470AAA01A90CA8FFF72E
:10240000D3FEDDE90DB00C995D46002610B909F147
:1024100001000D18B9EB050003D4C0F1FF3609F136
:102420000105A5EB09002BE0B9F1010F01DA4FF02E
:1024300001090020B9F1110F0090484601DD112378
:1024400000E003460AAA01A90CA8FFF7ADFEDDE9EA
:102450000C704D4600268346207800070AD4AB4511
:1024600000DA5D4601A8012D04DD411911F8011CB7
:10247000302907D04F4502DA17F1040F04DA0120A2
:1024800082460FE06D1EEEE7002F02DCED1B3E449E
:1024900003E0781CA84200DD7D1CB81B00F1010A96
:1024A0004FF000472078000703D4AA4501DB4FF026
:1024B000FF3A0021B7F1004F0DF143088DF84310AA
:1024C00024D002202B23002F01DA7F422D230A2162
:1024D000021EA0F1010000DC5FB197FBF1FC97FB4D
:1024E000F1F201FB1C7C17460CF1300C08F801CD11
:1024F000EEE7A8F1010003702188090501D5452107
:1025000000E06521A0F1010800F8011C09980FA95D
:10251000A1EB0807FF1D00B10120411901EBEA7092
:10252000A1693844081A401EA0612078C00602D470
:102530002046FEF775FF099828B1D4E9012190479C
:10254000206A401C20622078C00622D52046FEF773
:1025500067FF1EE0002E04DBB34502DD01A8805DAD
:1025600000E03020D4E901219047206A401C20621D
:10257000761CAAF101005FEA000A0AD100F046F9D0
:10258000C0680168405CD4E901219047206A401C82
:102590002062281EA5F10105DCDC07E0D4E9012159
:1025A00018F8010B9047206A401C2062381EA7F1E2
:1025B0000107F3DC2046FEF749FF032011B043E694
:1025C00001694A1C02610878704700B58FB0CDE9F7
:1025D00001310021059105497944CDE903101146E7
:1025E0006846FFF713F80FB000BD0000E5FFFFFFDE
:1025F0000A6802F8010B0A607047D1E900239A4289
:1026000002D2531C0B601070704710B5436913B1B0
:10261000AFF3008001E0FEF72AFF012010BD127821
:1026200000F124010A7000224A700122EDE71168CE
:102630004FF0FF32E9E70000074B70B50D467B44D1
:10264000FFF7C3FF0446284600F0C0FB10B14FF06F
:10265000FF3070BD204670BDDBA000003A2800D2DC
:10266000303820F02002412A01D3A2F137008842FD
:1026700001D34FF0FF3070470268114413780160B6
:1026800018467047D160054979445161044979443D
:10269000116200211161114600F020B9EDFFFFFF2A
:1026A000B7010000426842B1016811F8013B23B153
:1026B000521EC0E90012184670470121C160881EF1
:1026C000704742685AB1C368016843B983688B4256
:1026D00005D0491E521CC0E90012002070474FF07F
:1026E000FF3070470FB4002300B589B00CA90091EA
:1026F0000B99CB60204B7B440693204B7B44079384
:1027000004236FF00042CDE901321D4A7A446B4642
:1027100008920246002011F08EFD09B05DF814FB0E
:1027200070B506464FF0FF3015460C46324686B06F
:102730000091CDE9010169460020049004A8FFF74B
:10274000D1FF03460498211825B108B10A4600E0DC
:1027500022462A6000280DD0002B02DD0098884216
:1027600008D03246081B69460094CDE9010404A84C
:10277000FFF7B8FF06B070BDABFFFFFFC3FFFFFF61
:10278000390100002DE9F04791460F468046044686
:10279000002614F8015B2DB100F030F80068405DB0
:1027A000C007F6D12B2D02D02D2D18D0641E4A461D
:1027B0003946204600F04CFA27B13968A14201D1D0
:1027C000C7F800804FF0020471050BD54042002885
:1027D00003DDFFF7EDFB0460A007BDE8F08746F4DA
:1027E0008066E4E70028F8DAFFF7E2FB04606FF0A8
:1027F0000040F2E7004870478CC4002010B500F09C
:1028000005F8001D10BD00BF891101000048704788
:10281000ACC40020034640688C46002818BF88429C
:102820003CBF03464068F8D318681844884207D074
:102830000CF1030020F00700001D411A521A014656
:10284000081D0A60FEF786BD10B50446FFF7D6FFE7
:102850000068005D00F0010010BD00002DE9F041AE
:102860001F46044603260168072A01F4006004DBC2
:1028700008B116A505E016A503E008B115A500E00E
:1028800015A521F010002060A069C01EA0610FB145
:10289000401EA0612046FEF7C3FD4FB1D4E90121DF
:1028A00038469047206A401C2062C01C206206E027
:1028B000206AFAE7D4E9012115F8010B9047761E4A
:1028C000F8D22046FEF7C2FDBDE8F0814E414E0031
:1028D0006E616E00494E4600696E66002DE9F34F49
:1028E0004FF0000A0C4656468DB001200C9001F1C5
:1028F0000C000B9062690B980121904705002DD0C8
:10290000252D2CD0216A8847C0B162690B9801211E
:102910009047216A88470028F7D16269411E0B98C9
:10292000904700E0761CA1690D988847216A884786
:102930000028F7D1E1690D988847DBE7A1690D9878
:102940008847A842074601D1761CD3E7E1690D9874
:1029500088477F1C02D1BAF1000F6FD06BE162692A
:102960000B9800273D46394690472A2804D16269D2
:102970000B98012190470125DFF8D08262690B98FE
:1029800001219047A0F130010A290AD24745E5DC30
:1029900007EB870100EB4107303FDFD445F010051E
:1029A000ECE7E90601D46FF000476C280AD04C2808
:1029B00014D0682815D06A280DD074281CD07A2825
:1029C0001AD01DE062690B98012190476C2802D053
:1029D00045F0040514E045F002050DE045F0200542
:1029E0000AE062690B9801219047682802D045F0FF
:1029F000080505E045F4006562690B9801219047E0
:102A0000C4E9015765283DD019DC58287AD00CDC80
:102A1000452837D004DC252826D041289ED131E036
:102A200046282FD0472899D12CE05B2877D0612801
:102A300028D063287CD0642823D15AE0F6E06F28A0
:102A400048D008DC66281DD067281BD0692821D013
:102A50006E2816D127E0702845D0732868D07528D5
:102A600047D078280DD14DE0A1690D9888472528D9
:102A700005463FF469AFE1690D9888476D1C3FF446
:102A80006AAFD8E00D9923466A466FF0010011F055
:102A9000D2FBC5E045F0400023464FF000026060E5
:102AA000A80736D43EE0E8077FF447AF2068011D51
:102AB00021600068290501D506701BE7290701D5AB
:102AC000068017E7A90703D5F117C0E9006111E7F0
:102AD00006600FE745F0400023464FF008026060B3
:102AE000A80716D41EE040F60E0125EA010060603A
:102AF00016E045F0400023464FF00A026060A80748
:102B000007D40FE045F040006060A80708D52346D1
:102B100010220D996FF00100AFF3008080E007E014
:102B2000102223460D996FF00100FEF751FE77E069
:102B30004FF0000963284F46C8464B46CB4602D0AB
:102B40005B2806D038E0E80601D40120A060012708
:102B500032E06269D4F80CB00B98012190475E28EE
:102B600007D14FF0010949466269D4F80CB00B98BF
:102B70009047216939B900210A4603AB43F8212067
:102B8000491C0829FADBD8B3216949B308F10108C7
:102B900062690B98012190475D28F4D1B9F1000FCB
:102BA00009D0002003A951F82020D24341F8202069
:102BB000401C0828F7DB03AB2069002820794FEA86
:102BC00040701ED05B462246CDF80080CDE90197CB
:102BD0000D9900286FF0010020DAAFF300801FE0AC
:102BE000C11703AA00EBD1614B1121F01F0102EBC9
:102BF0008302411A13680120884003431360C7E72A
:102C000019E00D99224600286FF00100009702DAC2
:102C1000AFF3008004E0FEF781FE01E0AFF3008037
:102C200000280ADA401C06D10C9820B14FF0FF3082
:102C30000FB0BDE8F08F5046FAE7E90701D10AF17D
:102C4000010A064400200C9054E60000CCCCCC0CC9
:102C50002DE9F05F824615468B4600270AF10104F4
:102C6000B9460078302801D09DB113E014F8010B6B
:102C70000127782803D0582801D045B10AE00DB1CA
:102C8000102D07D1002714F8010B102502E00825AC
:102C900000E00A250026B0460EE005FB080005FB13
:102CA00006F101271FFA80F801EB1046B6F5803FC8
:102CB00000D3B94614F8010B2946FFF7CFFC0028D2
:102CC000EBDABBF1000F05D00FB1641E00E05446F3
:102CD000CBF80040B9F1000F06D0FFF769F90221E7
:102CE0000160C81EBDE8F09F48EA0640FAE7000010
:102CF0002DE9F047814616468AB0334878440DC81E
:102D00008DE80D0030487844801C03AC0DC884E881
:102D10000D0041F69B300844372190FBF1F290FB07
:102D2000F1F5A5F1800501FB12041B3C02D56442BC
:102D3000012000E00020DFF890A080460027FA4440
:102D4000AAF1BE0A0DE0E00709D03246684607EB5B
:102D500047010AEB810101F006F88DE807006410D5
:102D60007F1C002CEFD1184F7F44AC3F18E0E807E0
:102D700014D007EB04100DF1180A90E80E008AE851
:102D80000E00C068F04201D198190890324606A999
:102D900003A800F0E8FF03AB83E807006D10641C94
:102DA000002DE4D132466946B8F1000F03A802D0E5
:102DB00000F0B1FF01E000F0D6FFC9E90001C9F859
:102DC00008200AB0BDE8F08708330100007B00F05E
:102DD0008000704710B500F087FABDE8104000F0A1
:102DE0007DBA7546FFF706FDAE46050069465346B7
:102DF00020F00700854618B020B5FEF769FABDE857
:102E000020404FF000064FF000074FF000084FF051
:102E1000000B21F00701AC46ACE8C009ACE8C009E2
:102E2000ACE8C009ACE8C0098D4670472DE9FF4FFA
:102E3000064689B00878FF2806D0491C2D2805D001
:102E400000244FF0000908E000200CE00124F8E71E
:102E500009EB8903491C00EB43090878FF28F7D1E7
:102E600014B1C9F100008146107800252C46AA460D
:102E700029462D2801D02B2804D1521C2D2813D0EF
:102E8000002082468B461078FF280FD04FF0000CB0
:102E90000A21521CA5FB017804FB018105FB0C11E2
:102EA000C5194BEB0104EEE70120EAE700210846D3
:102EB0004FF00000BAF1000F02D000EB8000400894
:102EC000C0F38158B8F1010F01DD4FF0FF380C98C5
:102ED00009EB000755EA040009D04FF0020917F585
:102EE000FA7F0BDA4FEACA70C6E900B012E04FEA87
:102EF000CA70C6E900B00DB0BDE8F08FB7F5FA7F33
:102F00000DDDF0487844D0E90010C6E9001040EA31
:102F1000CA707060FFF74CF8C0F80090EBE7391EFC
:102F200002DAC8F1000200E0424600DA794206A85F
:102F3000FFF7DEFE06AB93E8070003AB83E807006C
:102F400044F23E005BEA04010090584604D144F28A
:102F50001E012C465D460091210C0904014306D157
:102F60000099240444EA15442D041039009104F01A
:102F70007F41014306D10099240244EA15642D02E1
:102F80000839009104F07041014306D100992401F1
:102F900044EA15742D01091F009104F040410143DA
:102FA00006D10099A40044EA9574AD00891E0091F1
:102FB00004F00041084304D100986D196441401E9B
:102FC000009042466846002FCDE9014503A902DD85
:102FD00000F0DDFE01E000F0B2FEBAF1000F0446A1
:102FE0000D4601D084F0004440F2FF7724F0004009
:102FF000284303D0C4F30A50B84212D1FEF7D8FFD9
:10300000C0F80090C4F30A50B8420AD1AE487844E0
:10301000D0E90010C6E9001004F0004108437060D8
:1030200069E7C6E9005466E72DE9FF4F1F464FF0F8
:10303000000A4FF0FF38454691B0D7E90146CDF878
:103040003CA0FFF7E3FBC0680168405C1090B969E1
:1030500012986D1C8847396A814688470028F6D146
:10306000B9F1FF3F0AD0002E24F4D06411DDB9F18C
:103070002B0F08D0B9F12D0F0BD102E0404615B04F
:103080003AE744F48064B96912986D1C8847761E4B
:103090008146600504A901D52D2000E02B20002EDB
:1030A00001F1010B0DF130088DF810003FDDB9F191
:1030B000690F08D0B9F1490F05D0B9F16E0F02D0F0
:1030C000B9F14E0F1CD13B4601A8009580E8500293
:1030D000DDE912126FF0020011F0B1F8C11CCED17F
:1030E0000EE0B96912986D1C884781461398761EC8
:1030F00044F4007405600F98401C002E0F9016DDFC
:10310000B9F1300FEDD0B9F1780F02D0B9F1580F05
:103110000DD10F9801280AD13B46CDE90054DDE9D5
:103120001212001F029611F088F8C11CA7D1109945
:1031300089453ED144F0800406E01399681CAAF149
:10314000010A44F400740860B9696D1C1298761E77
:10315000884730288146F0D02BE01099894505D169
:10316000200603D4761E44F0800418E0484605F09B
:103170000CFB08B3761E0DF123018B4544F400745B
:1031800008D2A9F130000BF8010B200607D5AAF1EF
:10319000010003E0200602D40AF101008246A005E6
:1031A00002D51399681C0860B96912986D1C88478C
:1031B0008146002ED1DC53E0002E51DDB9F1650FC0
:1031C00002D0B9F1450F4BD1A00549D5B9696D1CA5
:1031D0001298761E24F440748847002E81460CDD38
:1031E0002B2804D0B9F12D0F07D144F48074B969AC
:1031F00012986D1C8847761E8146E00501D52D2169
:1032000000E02B2108F8011BCDF8008021E0761E9C
:103210000DF13901884544F400740CD2A9F1300055
:1032200010F0FF0088F8000002D10099884509D904
:1032300008F1010806E0E00501D5244801E042F26A
:103240000F708246B96912986D1C884781461398A1
:103250000560002E04DD484605F097FA0028D6D117
:10326000F96912988847FF2053468BF8000088F8C8
:10327000000000200A900B9004AA0CA90AA8FFF7EE
:10328000D5FDA00502D46FF00100F8E614F0240F7C
:103290000AD0E00714D13868DDE90A12031D3B604B
:1032A0000068C0E900120BE00AA9684605F016FAAA
:1032B000E00705D13868009A011D39600068026096
:1032C0002846DCE67C31010072300100F1D8FFFFB6
:1032D0000446AFF300802046FDF799FF002801D097
:1032E00005F05ABA7047000010B5012805D000213A
:1032F00003A000F021F8012010BD09A1F8E70000AB
:1033000053494752544D454D3A204F7574206F66CE
:103310002068656170206D656D6F72790000000036
:103320003A2048656170206D656D6F727920636F1A
:10333000727275707465640070B505460C460A209B
:1033400000E06D1C05F02AFA35B128780028F8D184
:1033500002E0641C05F022FA14B120780028F8D1AC
:10336000BDE870400A2005F019BA00002DE9FF4FB2
:103370001F464FF03C0987B04FF00042DDE91410C2
:1033800001F10108DDF858A002EA40500390002046
:1033900004908346054604460590B969461E089880
:1033A0008847AAF1010A0290BAF1000F37DD0298AE
:1033B0002E2815D01021FFF751F900282ADB4FF0F5
:1033C000010B0499014316D0B9F1000F0BDB4A46FB
:1033D000C11700F0F1F905430C43A9F1040905E018
:1033E0000120059007E008B145F001050120049097
:1033F000059800B9361DB969089808F10108884791
:10340000BBF1000FAAF1010A0290CDD00999C1F8D1
:103410000080C9E70298702808D0502806D0F969C2
:1034200008988847BBF1000F14D04FE000200290AD
:103430000120BBF1000F049009D0B969089808F188
:1034400001088847AAF10109B9F1000F07DCF96901
:10345000089888476FF001000BB0BDE8F08F2B286B
:1034600004D02D280CD14FF0FF300490B969089892
:1034700008F101088847A9F10109B9F1000FE6DD5B
:10348000411CE4D00A21FFF7E9F80028DFDB0299AC
:1034900008F1010801EB810100EB41000290B969DC
:1034A000089888470A21FFF7D9F8099AA9F1010974
:1034B000B9F1000FC2F8008001DD0028E7DAF969F0
:1034C000089888470499029800FB016655EA0400B1
:1034D00004D004F04041090002D006E0039898E0CF
:1034E000A40044EA9574AD00B61E04F00041080043
:1034F00002D16D196441761E159810F0240F03D087
:103500004FF00B095C4803E04FF028096FF07D0095
:103510008246564507DAAAEB06018944B9F1410F04
:1035200001DD4FF0410901200021A9F1010200F065
:1035300043F9024628400B462140084301D00121AF
:1035400000E00021501E029143F1FF31284021404C
:10355000084301D0012000E000200299834651EA8F
:103560000B014FD0002108464FF00000039900F4F2
:10357000400039B100EB80004FF4400100EBD07007
:1035800001EA60008015012802DD4FF0FF3000E005
:1035900013D0401C36D0029860B3BBF1000F0CD1A1
:1035A0004A460120002100F007F928402140084345
:1035B00001D0012000E00020E0B101204A460021B6
:1035C00000F0FAF8034640190A4661412D1A8C4171
:1035D00011D3B9F1400F09DD159810F0240F02D076
:1035E000AAF1340603E0AAF1170600E0761C0025D4
:1035F0004FF0004406E05B1E42F1FF3220EA030573
:1036000021EA0204CAF10100B04206DA1B4903981C
:1036100008430190002000900EE0039AC4F3D321E8
:10362000E80A0A43164940EA44500A433146CDE9C4
:103630000002684605F09EF8159810F0240F0BD094
:103640001598C00715D13868DDE90012031D3B60ED
:103650000068C0E900120CE002A8694605F03EF8D7
:103660001598C00705D13868029A011D39600068B5
:1036700002604046F0E6000002FCFFFF0000F07F21
:103680000000F03F2DE9FF4F92461D4685B04FF0F8
:103690000041DDE9124BDDE914727F1E01EA4B5057
:1036A000414940F0FF4940EA0108002122F0200092
:1036B0004928049102D04E2828D04CE03BA0012696
:1036C00007C88DE80700A9690698641C88477F1E13
:1036D000014606D41DF8060018B121F020018142F0
:1036E0000BD0E96906988847032E34D0082E32D0D3
:1036F0006FF0010009B0BDE8F08F761C032E01D0F9
:10370000082EE0D1601CCAF80000DCE7A969069821
:10371000641C88477F1E2AD420F02000412826D12F
:10372000A9690698641C88477F1E20D420F02000D9
:103730004E281CD1A9690698641C88477F1E48F44E
:10374000002849F48009CAF8004001D4282806D08E
:10375000E969069888475FEACB7012D022E0A96930
:103760000698641C88477F1E01D4002803DAE969A3
:1037700006988847BCE72928F1D1641CCAF80040A4
:10378000E9E71BF0240F07D028680499031D2B607C
:103790000068C0E9001805E02868021D2A6000687A
:1037A000C0F800902046A5E70000F07F494E46494A
:1037B0004E49545900000000B2F120030AD5C2F16D
:1037C000200301FA02F120FA03F300FA02F041EAC1
:1037D0000301704700FA03F14FF0000070475FEA01
:1037E000400C08BF91F0000F4FEA8C234FEAC12232
:1037F00043EA51514FEA1C5018BF00F5F0404FEA20
:10380000300018BF41F000415FEA6C5C00F0298095
:10381000BCF1FF3F08BF40F080407047130C06BF6B
:1038200012044FF0100C4FF0000C130E04BF1202E4
:103830000CF1080C130F04BF12010CF1040C930FD0
:1038400004BF92000CF1020CD30F04BF52000CF124
:10385000010C11464FF00002A0F11F00A0EB0C007C
:10386000704711F0004F08BF704731F000413FF43E
:10387000D5AF0B0C06BF09044FF0100C4FF0000C35
:103880000B0E04BF09020CF1080C0B0F04BF090159
:103890000CF1040C8B0F04BF89000CF1020CCB0F50
:1038A00004BF49000CF1010CCCF12003A0EB0C008B
:1038B00022FA03F302FA0CF241EA030100F10100DB
:1038C000704720F07F4C80EA030023F07F47ACEB89
:1038D000070303F57C5300F0004003F1FF032DE9DB
:1038E00080494FEA154B09B44FEA144325EA0B4EC1
:1038F00024EA03480FF2042606EB132749083E7812
:103900005FEA320203FB0667C7F5000707FB06F60E
:103910004FEA54374FEAD64606F1020607FB066C1B
:10392000CCF1005C4FEA1C472CEA074C07FB06F47D
:103930000CFB06F504EB15464FEA961634BF002043
:103940004FF000404FEAD13706FB07FC4FEA1C4C12
:103950000CFB0BF7D21B03FB0CF761EB07010CFB15
:103960000EF7B0EB074072EB17420CFB08F734BFC1
:10397000A2EB0742B2EB074261EB17414FEA0C445E
:103980004FEA910706FB07FC4FEA1C4C0CFB0BF7B8
:10399000B0EBC74072EB573203FB0CF734BFA2EB1E
:1039A000C742B2EBC74261EB57310CFB0EF7B0EBED
:1039B000C70072EB57720CFB08F734BFA2EBC702CB
:1039C000B2EBC70261EB5771039F4FEA816141EA95
:1039D000921104EBCC044FEAD1374FEA826206FB26
:1039E00007FC42EA90124FEA80604FEA1C4C0CFB45
:1039F0000BF7D21B03FB0CF761EB07010CFB0EF777
:103A0000B0EB074072EB17420CFB08F734BFA2EB98
:103A10000742B2EB074261EB17414FEA8C554FEA80
:103A2000910704EB9C2406FB07FC4FEA1C4C0CFBA3
:103A30000BF7B0EBC74072EB573203FB0CF734BF08
:103A4000A2EBC742B2EBC74261EB57310CFB0EF75A
:103A5000B0EBC70072EB57720CFB08F734BFA2EB58
:103A6000C702B2EBC70261EB577115EB4C254FEA69
:103A7000816141EA92114FEA82624FEAD13742EA0C
:103A8000901206FB07FC44F100044FEA80604FEA05
:103A90001C4C0CFB0BF7D21B03FB0CF761EB070173
:103AA0000CFB0EF7B0EB074072EB17420CFB08F76C
:103AB00034BFA2EB0742B2EB074261EB174115EBB3
:103AC0001C154FEA813141EA92414FEA823242EAC3
:103AD00090424FEA80304FEA0C7644F1000448EA05
:103AE00003434EEA0B484FF0000EB2EB080C71EBAB
:103AF000030724BF624639464EEB0E0E4FF0000B13
:103B00000018524149414BEB0B0BB2EB080C71EB27
:103B100003077BF1000B24BF624639464EEB0E0EC5
:103B20004FF0000B0018524149414BEB0B0BB2EB2D
:103B3000080C71EB03077BF1000B24BF624639468A
:103B40004EEB0E0E51EA020718BF46F0010616EBC7
:103B50000E7655F1000254F1000103D5BDE889014C
:103B6000BDE80088BDE88901BDE80048B6195241AA
:103B700041EB0101A3F10103704780807F7E7D7CD2
:103B80007B7A7978777676757473727171706F6EEF
:103B90006E6D6C6C6B6A6A6968686766666564649A
:103BA000636362616160605F5F5E5E5D5D5C5C5B24
:103BB0005B5A5A5959585857575656555555545493
:103BC000535352525251515050504F4F4F4E4E4DF1
:103BD0004D4D4C4C4C4B4B4B4A4A4A49494948483D
:103BE000484747474746464645454544444444437D
:103BF00043434342424242414141000046EA0646B5
:103C0000A3F570534FEA164646EA42564FEAD222CF
:103C100042EA415210B54FEAD121A3F1010300F06D
:103C200017F820F0004000F1010C00F0004701EB14
:103C300000501146BCF5006F40EA070000D210BDED
:103C400002484FF0000140EA070010BD0000F07F7D
:103C5000002B26D4770021D01CB54FEA370703B4D8
:103C60004FF010004FF010014FF000000FBCBDE806
:103C700010400BF1010BBBF1010F08BF5FEA170702
:103C800022BF12F1010211F101014FF0004143F195
:103C9000000300F0004043EA00007047F9D35708E2
:103CA000DAE746EA064613F1400F4FEA16461FDDF3
:103CB00013F1200FDFBF16430A46002120335B4279
:103CC000C8D0C3F1200746EA064602FA07F74FEAD2
:103CD000164646EA0706C3F1200722FA03F201FA64
:103CE00007F721FA03F14FF0000342EA0702B1E7B8
:103CF00046EA020646EA06464FEA164646EA010644
:103D0000BCBF46EA0646360C4FF000034FF00002F7
:103D10004FF000019EE72DE9C048934630B491E88A
:103D2000380007C831EA400C48BF34EA430C03D5D9
:103D3000FFF7C7FDFFF78CFFF0BCBDE800882DE959
:103D4000C048934630B491E8380007C831EA400CC7
:103D500048BF34EA430C03D5FFF7B3FDFFF74EFF2E
:103D6000F0BCBDE800882DE9C048934630B491E826
:103D7000380007C810F0804F08BF13F0804F03D100
:103D800000F019F8FFF764FFF0BCBDE800882DE9EA
:103D9000C048934630B491E8380007C810F0804F0F
:103DA00008BF13F0804F03D100F005F8FFF726FF9E
:103DB000F0BCBDE8008820F07F4780EA030023F0D4
:103DC0007F4C07EB0C03A3F57C5300F00040A3F1FC
:103DD000FE0392F0000F00F0B38095F0000F00F0AA
:103DE00077802DE901494FEA11404FEA144621EA54
:103DF000004800FB06FC24EA064708FB06F607FB22
:103E000008F800FB07F718EB06484CEB164C4FEA96
:103E1000124B18EB07484FEA15464CEB174022EAC5
:103E20000B4E0BFB06FC25EA06470EFB06F607FBCE
:103E30000EFE0BFB07F71EEB064E4CEB164C4FF03D
:103E400000061EEB074E4CEB174B18EB0B0840F12E
:103E5000000018EB0E0B58EB000840F100008F1A21
:103E60004FF000013CBFC943661B14BFB5EB040C07
:103E700000213CBFC943F61B4FEA17444EEA8E0EA1
:103E800027EA04454FEA1C4704FB07622CEA074C6B
:103E900005FB07F70CFB05F604FB0CFC16EB0746CD
:103EA00042EB174216EB0C4642EB1C421BEB06069C
:103EB00058EB0202414146EA9E0601D5BDE8018960
:103EC000B619524141EB0101A3F10103BDE801899B
:103ED0004FEA14454FEA114724EA054621EA074C08
:103EE00005FB07F406FB07F70CFB06F105FB0CFCD2
:103EF00011EB074144EB17444FEA124711EB0C4119
:103F000044EB1C4422EA074C05FB07F206FB07F7CB
:103F10000CFB06F605FB0CFC16EB074642EB1742C2
:103F200016EB0C4642EB1C456A1854F1000148BFE1
:103F30007047B619524141EB0101A3F101037047EB
:103F400095F0000F37D04FEA11424FEA144721EAAB
:103F5000024624EA074C02FB07F106FB07F70CFBBD
:103F600006F402FB0CFC14EB074441EB17414FEA4B
:103F7000154714EB0C4441EB1C4125EA074C02FBAE
:103F800007F506FB07F70CFB06F602FB0CFC16EB2D
:103F9000074645EB174516EB0C4645EB1C4212193C
:103FA00051F1000148BF7047B619524141EB010180
:103FB000A3F1010370474FEA14454FEA114724EA81
:103FC000054621EA074C05FB07F106FB07F70CFB4A
:103FD00006F24FF0000605FB0CFC12EB074241EB2A
:103FE000174112EB0C4251EB1C4148BF704792182D
:103FF00041EB0101A3F10103704710B501F04EF848
:1040000010BD70B506460C46154608E03046721CD9
:1040100096B200F007F804F8010B681E85B2002D77
:10402000F4D170BD70B50446002601F0E5F8A0207B
:1040300001F0AEF801F02CF9201201F0A9F801F01E
:1040400027F92546E11704EB11610912A4EB0121C0
:10405000C8B201F09DF801F01BF901F0CDF8A120E4
:1040600001F096F801F014F9002001F059F8064625
:1040700001F0E8F8304670BD70B505460C461646AE
:1040800006E02178284600F009F8681C85B2641C17
:104090003000A6F101018EB2F3D170BD70B50446B7
:1040A0000E4601F0A9F8A02001F072F801F0F0F836
:1040B000201201F06DF801F0EBF82546E11704EB52
:1040C00011610912A4EB0121C8B201F061F801F0FD
:1040D000DFF8304601F05CF801F0DAF801F0B2F8F0
:1040E00070BD10B5012002F0ADFF002002F0AAFF64
:1040F00010BD000008B50146002000900348009064
:104100000098084400900098008808BD006C0040AA
:1041100008B500220092044A0092009A02440092DC
:10412000009A116008BD0000006C004000BFFEE76F
:1041300010B5044624B10221044800F077FC03E0E6
:104140000221024800F070FC10BD0000000C01408C
:1041500070B505460E46002407E0285D04F0E8F837
:10416000285D04F0A1F8601C84B2B442F5DB70BD98
:1041700010B50446204604F0CFF810BD2DE9F04FED
:104180008BB005460E4617469846DDE915ABDDF8BF
:104190005090A5F26C700590701E04900397CDF8B6
:1041A0000880CDF80490CDF800A06846FDF743FEE6
:1041B000044621460CA0FDF7F5F84FF4616000FBC2
:1041C0001B44601C60B101214FF0C05002F0FAFEA8
:1041D000012002F097FE204603F018F903F034F9AD
:1041E0000BB0BDE8F08F0000756E69785F74696D83
:1041F000657374616D703A2025640D0A000000003B
:1042000082688A4203D38268521A826001E00022E7
:10421000826082687AB902696AB10269521E0261DB
:10422000084A9288521E074B9A80D0E900321A44FD
:10423000826001220273D0E901329A4201D8002241
:1042400002737047341D002030B5039C016042604A
:1042500000258560437305692544056130BD000074
:10426000F0B589B006460C4635461C2102A8FDF77C
:1042700031FD0027002020604FF400700BF062F940
:10428000E061E06928B93CA0FDF78CF8002009B096
:10429000F0BD4FF40071E069FDF7FAFC5CE002A9A3
:1042A000284600F0EDFC50B1A81BA06138A0A16920
:1042B000FDF778F83046FDF74DF82068E7E79DF800
:1042C0002000062841D2DFE800F00315191A1B3A36
:1042D0002368E169C8189DF8182002A9FDF759FC68
:1042E0009DF8181020680844206017B907982061CD
:1042F00001272BE042F21070606127E026E025E004
:1043000001A902A800F0F7FC27A00199FDF74AF8DF
:10431000606810B9019860600CE06068019988429B
:1043200008D0A06810B90120A06019E00198606071
:104330000020A06024A06168FDF734F806E004F1D5
:104340000C0102A800F0EEFB00E000BF00BF9DF8EA
:10435000180040000D300544287800289FD100BF88
:10436000A81BA06120A0A169FDF71CF83046FCF74E
:10437000F1FF20688BE7000070446174612D3E708E
:10438000436F6E74656E74204E554C4C0D0A0000E0
:1043900070446174612D3E627974655F7573656404
:1043A000303A2025640D0A004669726D77617265A6
:1043B000203078343020416464726573733A307809
:1043C000253038580D0A00004669726D77617265B4
:1043D00020537461727420416464726573733A305F
:1043E00078253038580D0A0070446174612D3E62A2
:1043F0007974655F75736564313A2025640D0A0030
:104400000121402002F0CEBD10B5044621460E48E1
:10441000FFF7F6FE0C48007B01280AD10A48407BD2
:1044200018B90020FFF784FE0DE00120FFF780FEA1
:1044300009E00548407B18B90120FFF779FE02E04A
:104440000020FFF775FE10BD401D002010B504468A
:104450002146064801F0CEF80448007B012802D12D
:1044600001F0C0F801E001F0B5F810BD240F002004
:1044700021B1026842F00102026004E002684FF6D6
:10448000FE731A4002607047F0B58BB007460C46C9
:1044900015461E460121084602F084FD384600F00C
:1044A0001BF8009401950020029003960490802050
:1044B000059000200690079020200890C0010990E8
:1044C00000200A906946384600F0C0F801213846BD
:1044D000FFF7CEFF0BB0F0BD01684FF6FE72114042
:1044E00001600021016041608160C1604B498842E8
:1044F00008D14A490839496841F00F01474A083A4A
:1045000051608AE045491431884208D1434908394D
:10451000496841F0F001414A083A51607DE03F4965
:104520002831884208D13D490839496841F4706111
:104530003A4A083A516070E038493C31884208D123
:1045400036490839496841F47041344A083A5160A3
:1045500063E032495031884208D13049083949680E
:1045600041F470212D4A083A516056E02B496431DC
:10457000884208D129490839496841F47001274A1D
:10458000083A516049E025497831884208D12349E9
:104590000839496841F07061204A083A51603CE0AE
:1045A0001F49884206D1011F096841F00F01021F0F
:1045B000116032E01A491431884208D11849091FA4
:1045C000096841F0F001164A121F116025E01449F4
:1045D0002831884208D11249091F096841F47061E5
:1045E0000F4A121F116018E00D493C31884208D172
:1045F0000B49091F096841F47041094A121F1160F3
:104600000BE007495031884207D10549091F096865
:1046100041F47021024A121F1160704708000240E5
:104620000804024070B504460D4600212046FFF7FD
:104630001FFF2946204600F027F801212046FFF7FA
:1046400017FF70BD0146486880B2704710B5002260
:10465000026847F6F0739A430C6A8B6823430C692F
:1046600023434C6923438C692343CC6923434C6A1D
:1046700023438C6A23431A430260CB6843600B6870
:1046800083604B68C36010BD416070477047000095
:1046900001490860704700001404014001460020F1
:1046A0000022074B1B6803EA0102054B14331B6809
:1046B0000B4013B10AB1012000E000207047000058
:1046C00000040140002123498279002A3AD00A4699
:1046D000126803689A430B461A600A1D1268036841
:1046E0009A430B1D1A60027911440A6803681A4341
:1046F0000A60184A0832126803689A43154B083357
:104700001A601A1D126803689A43124B0C331A6020
:104710004279102A0ED11A1F126803681A430D4BF2
:1047200008331A601A1D126803681A43094B0C33C8
:104730001A600DE00749427911440A6803681A4378
:104740000A6005E0027911440A6803689A430A6026
:1047500070470000000401400149C8607047000034
:104760000020024030B5044604254FF4302000F00C
:1047700085F80546042D17D10C48006940F0020069
:104780000A49086108464461006940F04000086138
:104790004FF4302000F072F805460448006941F6F5
:1047A000FD71084001490861284630BD00200240E3
:1047B00004200B49C96801F0010109B101200EE094
:1047C0000749C96801F0040109B1022007E0044962
:1047D000C96801F0100109B1032000E0042070470E
:1047E000002002400348006940F080000149086150
:1047F000704700000020024078B506460C460425AC
:1048000000200090E80200F039F80546042D24D17C
:104810001348006940F00100114908613480E80242
:1048200000F02CF80546042D10D1B01C0090200C8F
:1048300000990880E80200F021F805460848006960
:1048400041F6FE7108400649086106E00448006927
:1048500041F6FE71084002490861284678BD000013
:1048600000200240024803494860034848607047FE
:104870002301674500200240AB89EFCD00B5024619
:104880000423FFF795FF034603E0FFF791FF03467C
:10489000521E012B01D1002AF7D102B90523184677
:1048A00000BD10B50446204609F068FB10BD2DE997
:1048B000FE4381460F4616469846CDF808800024F0
:1048C00068460DF095FF00BF0025321B3919484698
:1048D000029B09F087FB0546002D01DD2C4403E017
:1048E000002D01DA2C4607E0B44205DA02A9684639
:1048F0000EF010FD0028E7D000BF2046BDE8FE8383
:104900002DE9F04102460025002600200023002466
:10491000002791F803C00CF00F0591F803C00CF0CC
:10492000100CBCF1000F03D091F802C04CEA050551
:1049300091F800C0BCF1000F31D0146800202BE0CA
:104940004FF0010C0CFA00F3B1F800C00CEA0306BA
:104950009E4220D183004FF00F0C0CFA03F7BC43AA
:1049600005FA03FC4CEA040491F803C0BCF1280FDB
:1049700006D14FF0010C0CFA00FCC2F814C00AE09A
:1049800091F803C0BCF1480F05D14FF0010C0CFAAF
:1049900000FCC2F810C0401C0828D1D31460B1F844
:1049A00000C0BCF1FF0F34DD546800202EE000F1A0
:1049B000080C4FF0010808FA0CF3B1F800C00CEA3B
:1049C00003069E4221D183004FF00F0C0CFA03F72F
:1049D000BC4305FA03FC4CEA040491F803C0BCF1A3
:1049E000280F05D100F1080C08FA0CF8C2F8148061
:1049F00091F803C0BCF1480F07D100F1080C4FF04B
:104A0000010808FA0CF8C2F81080401C0828CED320
:104A10005460BDE8F0810246002093680B400BB162
:104A2000012000E00020704741617047016170473C
:104A30002DE9F0439FB0054689460024A04600209A
:104A40001C901D901E9019901A901B901690179014
:104A50001890159012901390149011900F90109040
:104A60000E900D900B900C900A90A84628A1284615
:104A7000FCF7DBFF04460834002C44D00AA80BA93D
:104A80000DAA0EABCDE90532CDE907100FA811A98B
:104A900012AA15ABCDE90132CDE9031016A819AB66
:104AA0001CAA1E4900902046FCF774FE20211C48D9
:104AB000FDF710F900211CA80CF0D8FD06460EF0F9
:104AC0007DFF17490860002119A80CF0CFFD144A9A
:104AD000C2E90201002116A80CF0C8FD104AC2E983
:104AE0000401002115A80CF0C1FD06460EF066FF7A
:104AF0000B498861002112A80CF0B8FD06460EF0A3
:104B00005DFF0749C86100201FB0BDE8F0830000C9
:104B10002B5A475053523A200000000020600308EF
:104B20007810002010B502460B460021002003E05B
:104B30000902145C2144401C147C8442F8DC196096
:104B4000002010BD70B504460025207800F064FAFE
:104B5000C5B22807050E607800F05EFA2844C5B299
:104B6000284670BD2DE9F04706460C464FF0000878
:104B700030783A2803D04FF0FF30BDE8F0870125A8
:104B80007019FFF7DFFF0746277408EB070000F0F6
:104B9000FF08AD1C7019FFF7D5FF0746676108EBEA
:104BA000070000F0FF08AD1C606900026061701929
:104BB000FFF7C8FF074660693844606108EB0700EB
:104BC00000F0FF08AD1C7019FFF7BCFF0746277601
:104BD00008EB070000F0FF08AD1C4FF000090CE0E7
:104BE0007019FFF7AFFF04F8090014F809004044FA
:104BF00000F0FF08AD1C09F10109207C4845EFDCFD
:104C00006FEA0800401C00F0FF087019FFF79AFFD8
:104C10008246D04502D04FF0FF30AEE70020ACE72F
:104C20002DE9F047824689463A215046FCF7F3FECB
:104C300007461FB94FF0FF30BDE8F0870FA1384697
:104C4000FCF7F3FE054615B94FF0FF30F4E73C469C
:104C50004E464FF0000808E0207800B908E02078C0
:104C6000307008F10108641C761CA81C8442F3D340
:104C700000BF002030704046DEE700000D0A000053
:104C80002DE9F041A8B004460D4626461C2101A896
:104C9000FDF720F82046FCF706FF07464FF0000816
:104CA00023E0802108A8FDF715F808A93046FFF792
:104CB000B7FF8046B8F1000F04DA4FF0FF3028B09C
:104CC000BDE8F0811C2101A8FDF704F801A908A89E
:104CD000FFF748FF10B14FF0FF30F0E71C2201A9A9
:104CE0002846FCF79BFF0020E9E7E019B042D8D83E
:104CF0004FF0FF30E3E710B502460B4600210020DD
:104D000003E00902145C2144401C147C8442F8DC5A
:104D100008041860002010BDF0B58DB00746294882
:104D20000468001D0568001D0668E0B28DF82800C3
:104D3000200A8DF82900200C8DF82A00200E8DF80D
:104D40002B00E8B28DF82C00280A8DF82D00280CD5
:104D50008DF82E00280E8DF82F00F0B28DF830005F
:104D6000300A8DF83100300C8DF83200300E8DF89D
:104D700033009DF833009DF832109DF831209DF8E6
:104D80003030CDE90632CDE908109DF82F109DF89E
:104D90002E209DF82D009DF82C30CDE90230CDE974
:104DA00004219DF82B009DF82A10CDE900109DF8F4
:104DB00029309DF8282004A13846FCF7FFFA0DB0F1
:104DC000F0BD0000E8F7FF1F252E3258252E32587F
:104DD000252E3258252E32582D252E3258252E328A
:104DE00058252E3258252E32582D252E3258252E54
:104DF0003258252E3258252E32580000002804BF84
:104E000040F6A3707047543002F0F4BDF0B587B09F
:104E10004FF0000516460F460400009501950295D7
:104E20000395049502BF40F6A37007B0F0BD1420AF
:104E3000E06505AA694604F1540002F039FE002835
:104E40001CBF07B0F0BD14F154000FD0017921F060
:104E50000601017110494165104981651049C1651C
:104E600010490166C564104905654166402204F198
:104E7000140102F0BFFD1422694604F1540002F04F
:104E8000B9FDA068E0653246394604F1540002F0ED
:104E90000FFE07B0F0BD00000123456789ABCDEFE1
:104EA000FEDCBA9876543210F0E1D2C3002804BF79
:104EB00040F6A37070472DE9F84F0446C0680028FB
:104EC0001CBF216900292CDDB1F5207F29DA20796A
:104ED000002520F006002071464E474F84F8580008
:104EE000DFF818B16FEA06086FEA07090095402954
:104EF0001BDD1420E06584F8585014F1540004D0F0
:104F000000F15001C564A1E8E00BD4E9031202F0FE
:104F100071FD6A4604F1140104F1540002F0C8FD69
:104F200068B140F6A270BDE8F88FE16800982218D9
:104F3000095C1175401C009021698842F5DB0098DE
:104F4000002136230028D8BF08464FF00002C8BF12
:104F5000014613DD04EB020C521C9CF814A0491E00
:104F60008AF0360A8CF814A0F4D1C0F1400100296F
:104F70001FDD00224028A8BF002107DAC0F1400150
:104F800011F0010102D0021913750122C0F1400C89
:104F90008C450EDD00EB020AA244521C8AF8143044
:104FA00000EB020AA244521C891C8AF814308C457A
:104FB000F0DC84F8585014F1540004D000F1500192
:104FC000C564A1E8E00B402204F1140102F012FDD7
:104FD0000020082204EB8001801C4B69521E83F0E4
:104FE0006A334B618B6983F06A338B61F2D10020A5
:104FF000BDE8F88F0123456789ABCDEFF0E1D2C35F
:10500000704700000348006800F0010000B100BED6
:1050100000BFFEE7F0ED00E00146302904DB39294E
:1050200002DCA1F130007047612904DB662902DC53
:10503000A1F15700F7E7412904DB462902DCA1F181
:105040003700F0E74FF0FF30EDE7000010B500202B
:105050000F4908600F48006820F070400D49086053
:105060000846006840F04050086000200A49C1F836
:105070009C01022004F006FA012005490860022084
:1050800004F000FA00200449C1F8980110BD0000A6
:1050900098812142000C01400080214208B5012185
:1050A000082001F0AFFFC020ADF8000010208DF8FF
:1050B000030003208DF8020069460448FFF720FC36
:1050C000C0210248FFF7B2FC08BD0000000C0140FF
:1050D00010B500200F4908600F48006820F07040AC
:1050E0000D4908600846006840F040500860012003
:1050F0000A49C1F89C01022004F0C4F901200549C5
:105100000860022004F0BEF900200449C1F89801AB
:1051100010BD000098812142000C01400080214216
:1051200070B5054600241748006820F07040154906
:1051300008600846006840F000400860002616E05D
:10514000002011490860022004F09CF901200F4959
:10515000C1F898016006040E0B487C38006808B15D
:10516000601CC4B2012004F08DF9701CC6B2082E78
:10517000E6DB15B9FFF7ACFF01E0FFF767FF20465C
:1051800070BD0000000C0140988121420080214246
:1051900070B504461548006820F070401349086057
:1051A0000846006840F04050086000201049086040
:1051B000002517E0E0090E49091D08606006040E8D
:1051C000022004F05FF901200A49C1F89801022089
:1051D00004F058F9002006490860022004F052F952
:1051E000681CC5B2082DE5DB70BD0000000C014055
:1051F000988121420080214210B50F48006820F0BC
:1052000070400D4908600846006840F04050086052
:1052100001200A4908600A49C1F89801042004F0F5
:1052200031F9002005490860042004F02BF9002022
:105230000349C1F8980110BD000C01409C81214236
:105240000080214210B50F48006820F070400D49E1
:1052500008600846006840F04050086000200A4995
:1052600008600A49C1F89C01042004F00BF90120F0
:10527000054908600549C1F89C01042004F002F9C1
:1052800010BD0000000C01409881214200802142A5
:1052900010B500241448006820F0704012490860DE
:1052A0000846006840F00040086001200F4908608F
:1052B00004F0E8F801200E49C1F8980104F0E2F882
:1052C00007E0601CC4B2FA2C03DDFFF7BBFF01202E
:1052D00010BD0648803800680028F2D10349091F34
:1052E000086000BFF4E70000000C01409C812142EF
:1052F000008021422DE9F04196B007460C46154644
:105300001E46DDF870800D48A0F182030CA24021FA
:10531000CDE9000502A8FCF767F88DF848400020A9
:105320008DF849001496CDF8548012AA02A9384687
:1053300000F0A2FE16B0BDE8F0810000410600209A
:105340002F25732F25732F6332732F2573000000D1
:1053500070B592B004460D464FF0FF3663A1664823
:10536000A0F1820365A2CDE90001402102A8FCF76B
:105370003BF82B46012202A9204601F0CBF906009A
:1053800002D0304612B070BD60A15B48A0F182032C
:105390005AA2CDE90001402102A8FCF725F82B46CE
:1053A000012202A9204601F0B5F9060001D03046DD
:1053B000E8E75AA15048A0F1820350A2CDE90001CC
:1053C000402102A8FCF710F82B46012202A9204632
:1053D00001F0A0F9060001D03046D3E753A14648BA
:1053E000A0F1820345A2CDE90001402102A8FBF70C
:1053F000FBFF2B46012202A9204601F08BF9060093
:1054000001D03046BEE74DA13B48A0F182033BA24C
:10541000CDE90001402102A8FBF7E6FF2B4601225F
:1054200002A9204601F076F9060001D03046A9E72E
:1054300046A13148A0F1820330A2CDE9000140210C
:1054400002A8FBF7D1FF2B46012202A9204601F05A
:1054500061F9060001D0304694E741A12648A0F149
:10546000820326A2CDE90001402102A8FBF7BCFF80
:105470002B46012202A9204601F04CF9060001D07A
:1054800030467FE73AA11C48A0F182031BA2CDE978
:105490000001402102A8FBF7A7FF2B46012202A929
:1054A000204601F037F9060001D030466AE734A102
:1054B0001148A0F1820311A2CDE90001402102A808
:1054C000FBF792FF2B46012202A9204601F022F9A8
:1054D000060001D0304655E7D4F8880018B12046C0
:1054E000D4F88810884700204CE70000696E736587
:1054F00072745F636F696E00410600202F25732F61
:1055000025732F7332632F2573000000646576695D
:1055100063655F7072697A65000000006465766992
:1055200063655F7374617475730000006465766908
:1055300063655F73657474696E6700006669726D98
:10554000776172655F6F6E6C696E65006669726D1A
:10555000776172655F757067726164650000000055
:105560007472616E736665725F64617461000000DD
:105570006465766963655F6163636F756E747300FC
:105580006669726D776172655F73657474696E6761
:105590007300000008B50121102001F033FD202028
:1055A000ADF8000010208DF8030003208DF80200F4
:1055B00069460748FFF7A4F920210548FFF736FAA6
:1055C00005224FF4FA61084600F034F808BD0000E7
:1055D0000010014010B520210148FFF727FA10BD47
:1055E0000010014010B520210148FFF71DFA10BD41
:1055F00000100140427B012A1BD182688A4203D9F4
:105600008268521A826001E000228260826852B988
:10561000026942B10269521E0261D0E900321A44A5
:10562000826001220273D0E901329A4201D800223D
:105630000273704710B5054B186059600023034C86
:10564000A3600123637323461A6110BD240F002059
:1056500070B504460CF08CFD24212046FCF718FBA5
:10566000242221464FF49C70FEF7CBFC0CF0C4FDC5
:105670002046FCF718FA202814D92046FCF713FA24
:105680000546294608A0FBF78DFE24212046FCF79D
:10569000FFFA242221464FF49C70FEF7EDFC4FF0F8
:1056A000FF3070BD0020FCE74D4435204B6579206C
:1056B000494420746F6F206C6F6E673A2025642018
:1056C0002833324D415829210D0A000070B5044697
:1056D0000CF04EFD24212046FCF7DAFA2422214664
:1056E0004FF48A70FEF78DFC0CF086FD2046FCF727
:1056F000DAF9202814D92046FCF7D5F905462946C1
:1057000008A0FBF74FFE24212046FCF7C1FA242213
:1057100021464FF48A70FEF7AFFC4FF0FF3070BDAA
:105720000020FCE74D4435204B657920746F6F20D5
:105730006C6F6E673A202564202833324D4158291A
:10574000210D0A00002818BF002901D0002A02DA22
:1057500040F6A3707047037913F0040F1CBF40F6A6
:10576000A170704710B503F0A7FC002010BD002801
:1057700019BF0029002A40F6A37070472DE9F041B7
:105780000446806886B0401E90460F46102822BF0F
:1057900040F6A27006B0BDE8F0812079694640F07D
:1057A00004002071204603F01BFCA2686946501ECD
:1057B000002817DD481E7B1E12F0010F03D110F8E0
:1057C000012F03F8012FA2684578521E5FEA620C90
:1057D00008D010F8026F5D70457803F8026FBCF1D5
:1057E000010CF6D1A068401E0028A4BF095C395402
:1057F000A068C8F8000006B00020BDE8F0810000F5
:10580000002804BF40F6A3707047017921F006011B
:1058100001710021C1640165044941650449816544
:105820000449C165044901660020704701234567AA
:1058300089ABCDEFFEDCBA987654321008B5012161
:10584000102001F0DFFB1020ADF800008DF8030000
:1058500003208DF8020069461148FFF751F8012135
:10586000082001F0CFFB4FF40070ADF800001020CD
:105870008DF8030003208DF8020069460948FFF700
:105880003FF84FF400710748FFF7D0F8002000F010
:105890000FF84FF480720449044801F0B4FC08BDCD
:1058A00000100140000C0140380F0020381000208B
:1058B00010B5044624B110210448FFF7B7F803E0FF
:1058C00010210248FFF7B0F810BD000000100140A1
:1058D00010B54FF400710248FFF7A8F810BD0000A2
:1058E000000C014010B54FF400710248FFF79CF81E
:1058F00010BD0000000C014010B586B0044686487B
:10590000007805287CD2DFE800F00328394AFD0042
:1059100082480068032810D3002080490860FFF700
:10592000E1FF7F4802F0A7FC4FF496617C4802F04B
:105930009AFC01207849087009E0794802F09BFC44
:105940000121774802F084FC0220734908707348F3
:105950000068401C71490860D9E0714802F090FC71
:1059600058B1FFF7B5FF6E4802F085FC20216C4866
:1059700002F06EFC022068490870C8E0684802F036
:105980007FFC58B167480460654802F074FC05214B
:10599000634802F068FC03205F490870B7E0604884
:1059A00002F06EFC00287DD070215F48FCF792F970
:1059B0005EA15C480068FCF738F85A490860084660
:1059C0000068801C08600846006818B90020524929
:1059D00008709CE0534800680078534908605148BB
:1059E0000068401C4F4908604F480068332866D063
:1059F00007DC30280AD0312859D032287CD15AE02F
:105A000081E0342870D0532876D16EE046486C305F
:105A1000011F05AAA0F12803CDE900210290A0F101
:105A2000680243A13F480068FBF7B4FE3E48806E21
:105A300018B94FF47A703C498866059806281CD23C
:105A4000DFE800F003070B0F131700203649486604
:105A500017E03D483449486613E03C4832494866FF
:105A60000FE03B48304948660BE03A482E4948660B
:105A700007E039482C49486603E000202A49486677
:105A800000BF00BF2848C06E2749896ECDE90010CD
:105A9000254800F14402011D436E002002F088FFFA
:105AA00020B100E02DE000201B49087028E0002014
:105AB000FFF7FEFE24E00120FFF7FAFE20E004AA33
:105AC00026A118480068FBF765FE14480068012805
:105AD00006D1134802F0CFFB1148049902F0C3FB32
:105AE0000EE009E000E00DE00AE000200B4908604C
:105AF00004200949087003E000200749087000BF2E
:105B000000BF04E003E000200349087000BF00BFAD
:105B1000002006B010BD00005400002058000020F6
:105B2000B81C002050000020C41C00204040000091
:105B300024255B5E245D24255B5E245D242564248E
:105B400025642425640D0A0025DE02082DDC0208E8
:105B5000A9DC02089DDD0208314A02082425640000
:105B600000200149087070475400002001460020C1
:105B700000BF05E0002301F1280242F83030401C4C
:105B80000A28F7DB704740F8801F42608360803846
:105B900070472DE9F05F04460E4617469846DDE94A
:105BA0000BABDDF82890C4F88C60002505E00021DF
:105BB00004F1280040F835106D1C0A2DF7DB6760F2
:105BC000C4F81080C4F80890C4F814A0C4F80CB04D
:105BD0000020206260622077A0670120206004F12D
:105BE000900002F048FB04F19C0002F044FB04F139
:105BF000A80001F087F8BDE8F09F10B50446606A80
:105C000010B12046FFF7B2FF10BD38B504460D466F
:105C10006A462946204600F001F838BD2DE9F041DA
:105C20009AB004460E4615464FF0FF3758222F49CA
:105C300001A8FBF7F3FF4FF0000804F1A80001F002
:105C400068F8206A00B13CE017A802F014FB17A81E
:105C5000616802F008FB06B901AE308BA061B07E2E
:105C6000606204F19C00A16902F0F2FA3246A16878
:105C7000206900F0FFFAB0F1000800DC21E017AA6B
:105C8000414620460BF0F2FA070000D019E017AAAF
:105C9000022120460CF028FF02280FD10020287096
:105CA00068702946681CE368626900F057F80128AB
:105CB00001D12F7804E04FF0FF3701E04FF0FF37BC
:105CC00000BF1FB9012020620020207704F1A80046
:105CD00001F028F837B9D4F8800018B12046D4F87C
:105CE0008010884738461AB0BDE8F0817442030836
:105CF0002DE9FE4F04460D4616461F46DDF830A03E
:105D00000020029001978046814601A809F0E6FC38
:105D10008DF808000298C0F3C00028700298C0F304
:105D2000031020706946019800F048F981460199F6
:105D300008440190DDE9001000EB01080198A8EB90
:105D40000000022800DA06E001A809F0CEFC30804D
:105D50004FF0010900BF4846BDE8FE8F2DE9FF471F
:105D600004460D46164699460020039002960027E9
:105D70008046009002A809F0B1FC8DF80C00039851
:105D8000C0F30310022800D01FE001A9029800F020
:105D900015F98046029908440290DDE90110471880
:105DA0000298381A022800DA0FE002A809F096FCDF
:105DB0008DF800000098C0F3C010207002A809F010
:105DC0008DFC28704FF0010800BF404604B0BDE8CC
:105DD000F0872DE9FF5F06460C4617469846DDE939
:105DE0000FABDDF838900020039011980290002549
:105DF00000200190009002A809F070FC8DF80C00C2
:105E00000398C0F30310032800D032E00398C0F3D6
:105E1000C00030700398C0F341002060039800F088
:105E2000010038706946029800F0C8F801900299A4
:105E3000084402900099029845182A4602A948464B
:105E400009F060FC10B10298281A00D511E0206812
:105E5000002804DD02A809F048FCA8F80000029818
:105E6000281ACBF800000298CAF80000012001901F
:105E700000BF019804B0BDE8F09F2DE9FE4F054634
:105E80000E4614461F46DDE90C9B00200290CDF81B
:105E900004908046824601A809F020FC8DF8080095
:105EA0000298C0F30310092800D02CE0694601983D
:105EB00000F084F88246019908440190DDE9001061
:105EC00000EB01080198A8EB0000022800DA1AE0B4
:105ED00001A809F00AFC2880002020600DE020685D
:105EE000B04202DD4FF0FF3A0DE001A809F0F6FBE9
:105EF0002268511C216047F8220001984045EED3EA
:105F00004FF0010A00BF5046BDE8FE8FFEB50446C3
:105F10004FF0FF36002504F1A80000F0FAFE6846B5
:105F200002F0A9F96846616802F09DF9A16820694C
:105F300000F08FFA0546002D05DD6A462946204609
:105F40000BF094F906460020207720622046FFF7E8
:105F500054FE04F1A80000F0E5FE3046FEBD014607
:105F6000086A70472DE9F84305460C4601260027CC
:105F70000020206000BF4FF0FF38781C074604283F
:105F800001DD00BF17E001216846A8478046B8F14F
:105F9000010F00D00FE09DF8001001F07F01206894
:105FA00001FB06002060F6019DF8000000F0800073
:105FB0000028E0D100BF3846BDE8F88370B504463C
:105FC0000D460348046029460248FFF7CBFF70BD29
:105FD00038000020F58B020830B50246002300BFD0
:105FE0000846CD1701EB5565ED11A1EBC515ECB2D7
:105FF000CD1701EB5565E911002901DD44F080045E
:1060000018465B1C14540029EADC184630BD2DE903
:10601000F04104460E460027B846206828B125689E
:106020002068FBF740FD074601E0A5686768304639
:10603000FBF739FD8046474508D13A4631462846A8
:10604000FBF750FD10B90120BDE8F0810020FBE70F
:10605000401C802801DA401C0AE0B0F5804F01DACC
:10606000801C05E00349884201DAC01C00E0001DE5
:1060700070470000FFFF1F002DE9F0418EB004467D
:106080000E4615464FF0FF370020089009900A9001
:106090000896804604F1A80000F03BFE206A18B97B
:1060A0003DA0FBF77FF969E00BA802F0E4F80BA82C
:1060B000616802F0D8F82878012802D028780228F0
:1060C00003D1204606F07AFCA880D5E90201CDE98B
:1060D000050108A807C802AB07C3A8886978CDE9FD
:1060E00000102B780022A168206900F0C4F98046D6
:1060F000B8F1000F03DC2CA0FBF754F93EE00BAA2B
:10610000414620460BF0B2F8070003D02AA0FBF767
:1061100049F933E02878012816D10BAA042120463A
:106120000CF0E2FC04280CD1E068009007AA06A954
:1061300005A86369FFF7DCFD012801D04FF0FF37A8
:106140001BE04FF0FF3718E02878022815D10BAA82
:10615000072120460CF0C8FC07280CD1E06800900D
:1061600007AA06A905A86369FFF7C2FD012801D0A7
:106170004FF0FF3701E04FF0FF3700BF781C10B938
:106180002046FFF73AFD04F1A80000F0CBFD3846A9
:106190000EB0BDE8F0810000707562207265747504
:1061A000726E20310D0A0000707562207265747580
:1061B000726E20320D0A000070756220726574756F
:1061C000726E20330D0A00000EB505462C46684657
:1061D00002F051F814E04FF4FA700CF03DF904F1BC
:1061E000A80000F096FD4FF4FA71684602F03BF803
:1061F0006946204602F0ABFF04F1A80000F092FDD2
:10620000E9E72DE9FC4704460E4615461F46DDF832
:1062100028800020019081460094042E02DA6FF05D
:10622000010924E0019865F307100190019867F3D4
:10623000C3000190062D01D1012100E00021019849
:1062400061F3420001909DF8041068460CF07AFC5E
:1062500002210098FFF7C0FE0099084400904146D3
:1062600068460CF075FC0098A0EB040900BF484696
:10627000BDE8FC872DE9FE4305460E46144602950F
:1062800000200190009000274FF0FF38204600F0DA
:10629000A5F807468146FFF7DBFEB04202DD6FF04E
:1062A00001088FE000208DF80400019820F0F00034
:1062B000103001909DF8041002A80CF043FC394600
:1062C0000298FFF789FE029908440290207A042878
:1062D00008D13EA102A80CF021FC042102A80CF078
:1062E00031FC07E03BA102A80CF018FC032102A836
:1062F0000CF028FC00208DF80000A17E009861F3CE
:1063000041000090E07E08B1012100E000210098EA
:1063100061F3820000900098C0F3800058B194F8B7
:106320003D10009861F3C400009094F83C10009870
:1063300061F345100090206C08B9A06C20B1009862
:1063400020F0800080300090E06C08B9606D20B1D2
:10635000009820F04000403000909DF8001002A806
:106360000CF0F0FB218B02A80CF0F2FB02A8D4E9A0
:106370000423E1680CF004FCE07E58B102A8D4E9E3
:106380000A23616A0CF0FCFB02A8D4E90D23216BFF
:106390000CF0F6FB0098C0F3C01028B102A8D4E9B5
:1063A0001123216C0CF0ECFB0098C0F3801028B195
:1063B00002A8D4E91423E16C0CF0E2FB0298A0EBF4
:1063C000050800BF4046BDE8FE8300004D5154540F
:1063D000000000004D5149736470000070B5044620
:1063E0000025207A032801D10C2503E0207A042817
:1063F00000D10A25D4E90412E06800F009FA801CF3
:106400000544E07E68B1D4E90A12606A00F000FA3F
:10641000861CD4E90D12206B00F0FAF93044801C80
:106420000544206C08B9A06C30B1D4E91112206C7D
:1064300000F0EEF9801C0544E06C08B9606D30B1E5
:10644000D4E91412E06C00F0E3F9801C05442846FE
:1064500070BD70B504460D460E222946204600F058
:10646000E2F870BD70B504460D460C222946204660
:1064700000F0D9F870BD2DE9F04F87B005460F4602
:1064800090461C46DDE915B6DDE9109A0695002018
:106490000590049003900096204612A90EC900F0C2
:1064A00042F804900290FFF7D3FDB84203DD6FF08D
:1064B0000100039033E0059820F0F00030300590A3
:1064C000059868F3C3000590059864F342000590B1
:1064D000059869F3000005909DF8141006A80CF0CB
:1064E00031FB04990698FFF777FD0699084406905A
:1064F00006A812A90EC90CF043FB002C03DD51467F
:1065000006A80CF025FB324659460698FBF741FBDE
:106510000698304406900698401B039000BF0398ED
:1065200007B0BDE8F08F7FB50546089E002401A89E
:1065300007C800F06DF9801C30440444002D00DDD4
:10654000A41C204604B070BD2DE9FF5F05460E4631
:1065500017469846DDE90E9A0395002002900190B7
:10656000009000245146484600F046F883460190CA
:10657000FFF76EFDB04202DDA01E009038E0002063
:106580008DF80800029820F0F00080300290029808
:1065900067F3C3000290029820F00600801C02906E
:1065A0009DF8081003A80CF0CDFA01990398FFF7A5
:1065B00013FD039908440390414603A80CF0C8FA60
:1065C00000240FE004EB44000AEB800C03A89CE8D5
:1065D0000E000CF0D5FA109810F8241003A80CF057
:1065E000B1FA641C4C45EDDB0398401B009000BFE2
:1065F000009804B0BDE8F09F2DE9F04105460E4635
:10660000022700240AE004EB440006EB800393E831
:10661000070000F0FDF8C01C0744641CAC42F2DB2C
:106620003846BDE8F0812DE9FC4104460D4616468A
:1066300000200190471E0094022D01DA871E15E00C
:1066400000208DF80400019866F3071001909DF872
:10665000041068460CF076FA00210098FFF7BCFCA5
:106660000099084400900098071B00BF3846BDE819
:10667000FC812DE9F04105460F4616464FF0FF38E4
:106680004446002419E005F1280050F8340098B180
:1066900005F1280151F834003946FBF76DFB58B974
:1066A0003EB9002105F1280040F8341000EBC40089
:1066B00041604FF0000802E0641C0A2CE3DB00BFDD
:1066C000CEB108F1010068B9002408E005F1280006
:1066D00050F8340010B94FF0000802E0641C0A2C96
:1066E000F4DB00BF0A2C06DA05F1280040F834700C
:1066F00000EBC40046604046BDE8F08110B504469A
:106700002246034904F1AC0001F03CFD10BD00003D
:10671000C96102082DE9FC4104460D4616461F4694
:1067200001A83B46324629460090204600F002F878
:10673000BDE8FC812DE9FF478AB004460E461F469E
:10674000169D4FF0FF384FF000090020049005908F
:106750000690049604F1A80000F0DBFA206A00B964
:1067600048E007A801F087FD07A8616801F07BFDFC
:10677000204606F023F91FFA80FA0CA804A901228A
:10678000CDE90021029053460022A1682069FFF75D
:10679000DBFE8146B9F1000F00DC2BE007AA494679
:1067A00020460AF063FD5FEA000800D022E007AA55
:1067B000092120460CF098F9092818D100200390EF
:1067C0002870E16860692B4603AACDE90001012128
:1067D00002A8FFF752FB012808D12878802805D0AD
:1067E0003A4631462046FFF744FF804601E04FF02D
:1067F000FF3800BF08F1010010B92046FFF7FDF98E
:1068000004F1A80000F08EFA40460EB0BDE8F08713
:1068100037B50024009820B10098FBF744F90446EE
:1068200000E0019C20463EBD00BFFEE770B5044677
:10683000254604A0FAF7B6FD6A20084981F8410010
:1068400070BD00004D717474436C69656E74436F64
:106850006E6E65637465640D0A0000001E070020FB
:1068600070B50446254603A0FAF79CFD052085F87F
:106870007C0070BD4D717474436C69656E744469BD
:1068800073636F6E6E65637465640D0A00000000CB
:1068900010B5044605F0E2FE06480078012804D150
:1068A00001220221104602F067FA03A0FAF77AFDEE
:1068B00010BD0000180000204D717474436C6965B0
:1068C0006E74496E69746564210D0A00ADF6C81DC9
:1068D000642147A8FBF7FEF924213EA8FBF7FAF94B
:1068E0002C2133A8FBF7F6F964211AA8FBF7F2F97B
:1068F0000024002500200BF0FBFF5822B24904A819
:10690000FBF78CF900BF0DF6B81000F06DFA40F2FD
:106910001A4060A9CDE900010DF29C5341F2883282
:106920000DF6B8110290A948FFF733F9A84BA94A10
:10693000A949A648FFF727F9A848A449886733AAB8
:106940003EA947A801F02CFFA54BA6A264211AA8D6
:10695000FAF74AFD40F25B721AA90DF6B81000F082
:106960002DFA040004D10220984981F87C0004E04B
:106970000320964981F87C0064E0A4A0FAF712FD98
:106980004FF0FF324FF47A710846FEF753FE1420A1
:106990000BF062FD8D48FFF7B1FE0446012803D0DD
:1069A00021469EA0FAF7FEFC00208DF82B00032064
:1069B0008DF8180047A807903EA8149033A81790A8
:1069C0003C20ADF8280001208DF82A0004A97F485A
:1069D000FFF71BF9040004D104207C4981F87C00F6
:1069E00004E00520794981F87C002BE04FF0FF326C
:1069F0004FF4FA710846FEF71DFE14200BF02CFD33
:106A00008FA0FAF7CFFC75497048FEF7A1FC04008F
:106A100004D106206D4981F87C0004E007206B4911
:106A200081F87C000EE08BA0FAF7BCFC4FF0FF323F
:106A300000214FF47A70FEF7FDFD0820634981F8CC
:106A40007C0000BFBEE0C8200BF006FD5F4890F858
:106A50007C00092806D2DFE800F00511223C627CA8
:106A600095A7AF004FF0FF324FF47A710020FEF788
:106A7000E1FD0120554981F87C00A2E07DA0FAF7F4
:106A800091FC4FF0FF324FF47A714800FEF7D2FDCF
:106A900001F01EFA03204D4981F87C0091E079A0B5
:106AA000FAF780FC4FF0FF324FF47A710846FEF798
:106AB000C1FD04A94548FFF7A8F8040004D104204B
:106AC000424981F87C0003E00520404981F87C00C0
:106AD00077E070A0FAF766FC4FF0FF324FF4FA61EE
